:020000040800F2
:10000000005000202102000861320008653200081B
:10001000693200086D3200087132000800000000EB
:100020000000000000000000000000007532000821
:1000300079320008000000007D320008813200089B
:100040002D2F00082D2F00082D2F00082D2F000820
:100050002D2F00082D2F00082D2F00082D2F000810
:100060002D2F00082D2F00082D2F00082D2F000800
:100070002D2F00082D2F00082D2F00082D2F0008F0
:100080002D2F00082D2F00082D2F00082D2F0008E0
:100090008D3200082D2F00082D2F00082D2F00086D
:1000A0002D2F00082D2F00082D2F00082D2F0008C0
:1000B0002D2F00082D2F00082D2F00082D2F0008B0
:1000C0002D2F00082D2F00082D2F00082D2F0008A0
:1000D0002D2F00089D3200082D2F00082D2F00081D
:1000E0002D2F00082D2F00082D2F000800000000E4
:1000F0000000000000000000000000000000000000
:1001000000000000000000005FF808F100B583B0B7
:1001100002F074FE304B314A1360314A1360314BA8
:10012000314A03E011681960043304322F498B42CD
:10013000F8D32A4B1A682E4B9A4204D1284B1A68DE
:100140002C4B9A4200D0FEE7234B2B4A13602B4ADC
:1001500013602B4B02E000221A600433294A9342B9
:10016000F9D3254B1B6813B9244B1B6803B1FEE779
:1001700002F050FE01A8694602F0E8FD224C234B34
:100180001C1BA410002504E01F4B53F82530984792
:100190000135AC42F8DC1E4C1E4B1C1BA410002584
:1001A00004E01B4B53F8253098470135AC42F8DC8E
:1001B0000198009902F0C0FF0546174C174B1C1B15
:1001C000A41004E0013C144B53F824309847002C51
:1001D000F8DC284602F096FDBABADECA000000201C
:1001E000E40000200000002030580008E800002053
:1001F0007856341232547698E8000020CC1B002048
:10020000E8000020D01B00207803000878030008D5
:1002100078030008780300087803000878030008D2
:1002200008B5FFF773FF00BF00BEFEE71EF0040F26
:100230000CBFEFF30880EFF309807146414A104785
:100240002DE9F04182B004468846134B5E6B9D6BEE
:100250009F6A1B6B13F0020F0DD00F4BDB6A002B54
:1002600009DA4BF6AB6102F051FE20B14FF00042CB
:10027000094BDA620CE0094802F070FDCDF800800D
:100280002046394632462B4602F0C8FD00BEFEE746
:1002900002B0BDE8F08100BF00ED00E0AC56000800
:1002A00000BEFEE71EF0040F0CBFEFF30880EFF373
:1002B00009807146244A10472DE9F04182B0074673
:1002C0008846084B5D6B9C6B9E6A074802F046FDB2
:1002D000CDF80080384631462A46234602F09EFD7E
:1002E00000BEFEE700ED00E0BC5600081EF0040F63
:1002F0000CBFEFF30880EFF309807146134A1047F3
:100300002DE9F04182B007468846084B5D6B9C6B37
:100310009E6A074802F022FDCDF80080384631463B
:100320002A46234602F07AFD00BEFEE700ED00E01B
:10033000C856000800BEFEE700BEFEE700BEFEE7AE
:100340007047000041020008B902000801030008DC
:100350003058000800000020E80000203058000855
:100360000000000000000000E8000020D01B00207A
:08037000000000000000000085
:1003780010B504460E4B18784FF47A73B3FBF0F3BC
:100388000C4A1068B0FBF3F000F0B0F858B90F2C25
:100398000BD84FF0FF302146002200F051F8064BF1
:1003A8001C60002010BD012010BD012010BD00BF41
:1003B80008000020140000200400002008B5074AA7
:1003C800136843F010031360032000F01BF80020AB
:1003D800FFF7CEFF02F0C2FE002008BD0020024059
:1003E800034A1368034909780B441360704700BF38
:1003F8008001002008000020014B1868704700BFEA
:100408008001002010B50446C31E042B03D90A48F6
:10041800A22102F0A1FE04F00700084AD36823F4E1
:10042800E0631B041B0C43EA002040F0BF6040F46B
:100438000030D06010BD00BF6454000800ED00E03B
:1004480070B504460E4615460F2A03D91A48BA2134
:1004580002F082FE0F2E03D91748BB2102F07CFE62
:10046800164BDB68C3F30223C3F10702042A28BF33
:100478000422191D062901D9D81E00E000200123F5
:1004880003FA02F2013A324002FA00F183405A1E9E
:100498002A400A43002C06DA04F00F041201D2B2F3
:1004A800074B1A5570BD1201D2B204F1604404F52D
:1004B800614484F8002370BD6454000800ED00E036
:1004C80014ED00E010B5041E03DA0648CE2102F050
:1004D80043FE610904F01F040123A340024A42F8C5
:1004E800213010BD6454000800E100E00138B0F18B
:1004F800807F0AD2064B5860F021064A82F8231002
:100508000020986007221A6070470120704700BFDA
:1005180010E000E000ED00E010B50446042805D026
:1005280020B1094840F2D91102F016FE042C05D179
:10053800064A136843F00403136010BD034A1368A6
:1005480023F00403136010BD6454000810E000E0B9
:10055800704700BF08B5FFF7FBFF08BD08B590F866
:100568002130022B03D004238363012008BD0268D5
:10057800136823F00E0313600268136823F0010365
:1005880013600368194A93421FD0143293421AD059
:100598001432934214D0143293420ED01432934240
:1005A80008D01432934202D14FF480120EE04FF07B
:1005B80080720BE04FF4803208E04FF4805205E07F
:1005C8004FF4807202E0102200E00122084B5A60CA
:1005D800012380F82130002380F82030436B13B1C9
:1005E8009847002008BD002008BD00BF0800024051
:1005F800000002402DE9F04383B080460F46AF4B20
:10060800984213D003F5806398420FD003F58063B6
:1006180098420BD003F58063984207D003F58063B6
:10062800984203D0A648CD2102F096FD3B689AB2C5
:1006380012B11B0C1B041BB1A148CE2102F08CFD8A
:100648007B68012B22D9112B20D0022B1ED0122B14
:100658001CD09C4A934219D002F58012934215D0BF
:1006680002F58012934211D0A2F5F81293420DD0F0
:1006780002F58012934209D002F58012934205D008
:10068800032B03D08E48CF2102F066FD4FF00009FE
:100698004E4629E10125B5403C682C40AC4240F06B
:1006A8002281864B984513D003F5806398450FD077
:1006B80003F5806398450BD003F58063984507D010
:1006C80003F58063984503D07D48DD2102F044FDA1
:1006D8007B68122B49D00CD8022B3AD004D8002BB7
:1006E8004FD0012B1ED067E0032B60D0112B24D0F4
:1006F80062E0754A934244D008D8A2F5801293422A
:100708003FD002F58032934256D13AE06F4A934285
:1007180037D002F58032934233D0A2F5801293424B
:100728004AD12EE0FB68013B022B03D96448E5213E
:1007380002F012FDD7F80C903EE0FB68013B022B5B
:1007480003D95F48EC2102F007FDFB6803F10409B7
:1007580032E0FB68013B022B03D95948F32102F030
:10076800FBFCFB6803F1080926E0FB68013B022B50
:1007780003D95348FA2102F0EFFCFB6803F10C0996
:100788001AE0BB68022B04D94D4840F2071102F069
:10079800E3FCBB6873B1012B04D1C8F810504FF0CB
:1007A800080909E0C8F814504FF0080904E04FF0B0
:1007B800000901E04FF00409FF2C01D8454601E08B
:1007C80008F10405FF2C01D8B00002E0A6F10800EA
:1007D800800029680F23834021EA030209FA00F305
:1007E80013432B607B6813F0805F7CD0384B9A6989
:1007F80042F001029A619B6903F001030193019B96
:10080800B008821C334B53F8221006F00305AD00E4
:100818000F23AB4021EA0302284B984513D003F578
:10082800806398450DD003F58063984507D003F59C
:100838008063984501D1032306E0042304E00223E2
:1008480002E0012300E00023AB4013430230214AB9
:1008580042F820307B6813F4803F05D002F58062AF
:1008680013682343136004E01B4A136823EA040354
:1008780013607B6813F4003F04D0174A536823437E
:10088800536004E0144A536823EA040353607B6806
:1008980013F4801F04D0104A93682343936004E044
:1008A8000D4A936823EA040393607B6813F4001FDE
:1008B80014D0094AD3681C43D46014E000080140EE
:1008C800945400080000111000002110000031109D
:1008D800001002400000014000040140054AD368AE
:1008E80023EA0404D46001360F2E7FF6D3AE03B09A
:1008F800BDE8F08300040140002870D0F0B587B04F
:1009080004460268384B9A4203D038489F2102F0C7
:1009180023FC94F8293413F0FF0F05D1002384F841
:100928002834204602F032FD032384F82934206855
:1009380001F00CFD254655F8107B6E460FCD0FC60D
:100948002B683360231D0ECB384601F0EDFC206880
:10095800002101F005FD002310E004EB4312012102
:1009680082F8291082F828309386002182F82B100B
:100978009163D1639A1C5201A15001330E2BECD91B
:10098800002312E004EB4311002281F8292281F8A8
:1009980028328B8681F82B22C1F83822C1F83C22F4
:1009A80003F112014901625001330E2BEAD92546A1
:1009B80055F8107B6E460FCD0FC62B683360231D8C
:1009C8000ECB384601F0CEFC002584F824500123D4
:1009D80084F82934206801F0F3FF284601E001205B
:1009E800704707B0F0BD00BF005C0040C454000869
:1009F80090F82834012B10D010B50446012180F856
:100A0800281402F01DFE206801F0D8FF206801F0CC
:100A180093FC002084F8280410BD0220704700BF12
:100A280010B5044690F82834012B0BD0012380F828
:100A3800283480F82410006801F0BAFF002084F8F8
:100A4800280410BD022010BD38B50546C8B210F004
:100A5800800F05D001F07F0405EB4414283405E02D
:100A680001F07F0405EB441404F50A7401F07F01DA
:100A78002170C00960702261E37095F82834012B59
:100A88000AD0012385F828342868214601F084FC1F
:100A9800002085F8280438BD022038BD10B504466A
:100AA800CAB212F0800F05D001F07F0300EB4313A8
:100AB800283305E001F07F0300EB431303F50A73C5
:100AC80001F07F011970D2095A7094F82824012A7C
:100AD8000AD0012284F828242068194601F0FAFD7A
:100AE800002084F8280410BD022010BD70B501F064
:100AF8007F056C0104F50A7101440444C4F83C22E2
:100B080005F112025201861883500023736084F89D
:100B1800293284F828521DB9006801F06FFF02E0FD
:100B2800006801F06BFF002070BD00BF01F00F01ED
:100B380000EB4110B0F84402704700BF70B501F0F7
:100B48007F056C0104F1280101440444E263AA1CF6
:100B580052018618835000237360012384F82930DA
:100B680084F828501DB9006801F048FF02E00068C9
:100B780001F044FF002070BD70B582B00446002328
:100B8800ADF80630ADF8043008E2BDF8065015F0AF
:100B98000F0540F0C580BDF8063003F010039BB286
:100BA80093BB03889BB223F4E14323F070039BB209
:100BB80003802168B1F850309AB294F8283002EBDB
:100BC800C30301EB4303D3F80434C3F30903636499
:100BD800E26B1344E3632046002102F00BFC94F817
:100BE800243013F0FF0F00F0D981236C002B40F064
:100BF800D581226894F8243043F08003A2F84C3061
:100C0800002384F82430C9E103889BB2ADF804308E
:100C1800BDF8043003F400639BB2FBB1B0F8503068
:100C28009BB294F8282203EBC20300EB4303D3F8EA
:100C38000C34C3F30903C4F8443204F22C41B4F869
:100C48002C2202F04BF82268138823F070031B054E
:100C58001B0D1380204602F0B9FB9FE1BDF804305C
:100C68001BB2002B80F29A81038823F070031B05C6
:100C78001B0D03802068B0F850309BB294F82822EE
:100C880003EBC20300EB4303D3F80C34C3F30903AB
:100C9800C4F8443263B1D4F83C12B4F82C2202F000
:100CA8001DF8D4F83C22D4F844321344C4F83C323A
:100CB8002046002102F094FB2268B2F850309BB223
:100CC800063302EB4303D4F838123E290ED9C1F398
:100CD8004F1211F01F0F01D1013A92B26FEAC262AE
:100CE8006FEA524292B2C3F800240AE0C1F34F02FD
:100CF80011F0010F01D0013292B2920292B2C3F800
:100D08000024226813889BB223F4804323F07003E5
:100D180083F4405343F4004343F0800313803DE1E0
:100D2800236833F825309BB2ADF80430BDF80430A1
:100D38001BB2002B80F2958030F8253023F0700329
:100D48001B051B0D20F8253004EB451393F83232B0
:100D5800DBB92068B0F850309BB204EB451292F82A
:100D6800282203EBC20300EB4303B3F80C64C6F379
:100D78000906002E50D004EB4513D3F83C12B3F803
:100D88002C22334601F0AAFF46E0206804EB451305
:100D980093F8281230F8213003F480439BB2ABB1AA
:100DA800B0F8502092B202EBC10300EB4303B3F852
:100DB8000464C6F30906F6B104EB4513D3F83C12F4
:100DC800B3F82E22334601F089FF14E0B0F8503012
:100DD8009BB203EBC10300EB4303B3F80C64C6F307
:100DE800090646B104EB4513D3F83C12B3F8302298
:100DF800334601F073FF226804EB451393F8281279
:100E080032F8213023F0F0031B051B0D43F4004397
:100E180043F0C00322F8213005F112035B01E11809
:100E28004A6832444A6004EB4511D1F83C22324406
:100E3800C1F83C22E3582BB104EB4511D1F8381224
:100E48008E4207D204EB4513204693F8281202F08D
:100E5800C7FA06E004EB4511204691F82812FFF77F
:100E680045FEBDF8043003F080039BB2002B00F070
:100E78009580226832F825309BB223F4E14323F0B1
:100E880070039BB222F8253004EB451393F83230F7
:100E9800CBB92068B0F850309BB204EB451292F8F9
:100EA800282003EBC20300EB4303D3F80434C3F355
:100EB800090304EB45125364002B47D0D16B928D84
:100EC80001F086FD42E0206804EB451393F82810F2
:100ED80030F8213003F040039BB29BB1B0F85020AA
:100EE80092B202EBC10300EB4303D3F80434C3F31B
:100EF800090304EB45125364BBB1D16BD28D01F0E9
:100F080067FD12E0B0F850309BB203EBC10300EB71
:100F18004303D3F80C34C3F3090304EB45125364B9
:100F28001BB1D16B128E01F053FD226804EB4513FF
:100F380093F8281032F8213023F0F0031B051B0D1D
:100F480043F4404343F0800322F821302068B0F88E
:100F580050309AB204EB451191F8283002EBC303E4
:100F680000EB4303D3F80434C3F30903A81C40017E
:100F780022185360CA6B1A44CA6323583BB904EB5E
:100F88004515204695F8281002F034FA06E004EBDF
:100F98004515204695F82810FFF7D0FD2068B0F8D1
:100FA80044309BB2ADF8063013F4004F7FF4EDAD3A
:100FB800002002B070BD00BF10B50446006801F003
:100FC80001FD10F4004F02D02046FFF7D5FD206840
:100FD80001F0F8FC10F4806F0FD02268B2F84430AA
:100FE80023F480631B041B0CA2F84430204602F053
:100FF80011FA20460021FFF713FD206801F0E2FCFA
:1010080010F4804F08D02268B2F8443023F48043AB
:101018001B041B0CA2F84430206801F0D3FC10F428
:10102800005F08D02268B2F8443023F400531B0450
:101038001B0CA2F84430206801F0C4FC10F4805F57
:101048001DD02268B2F8403023F004031B041B0CA7
:10105800A2F840302268B2F8403023F008031B049D
:101068001B0CA2F84030204602F0F0F92268B2F8D2
:10107800443023F480531B041B0CA2F8443020682E
:1010880001F0A0FC10F4006F21D02268B2F84030C3
:101098009BB243F00803A2F840302268B2F844300B
:1010A80023F400631B041B0CA2F844302268B2F836
:1010B80040309BB243F00403A2F84030206801F0AE
:1010C80081FC10F4805F02D1204602F0AFF920685D
:1010D80001F078FC10F4007F0BD02268B2F844309D
:1010E80023F400731B041B0CA2F84430204602F0C2
:1010F8008BF9206801F066FC10F4807F08D0226824
:10110800B2F8443023F480731B041B0CA2F844305B
:1011180010BD00BF38B50546CAB212F0800F05D021
:1011280001F07F0300EB4313283303E000EB411386
:1011380003F50A730120987001F07F041C70D2092E
:101148005A7095F8282482420FD085F82804286818
:10115800194601F0A9FB24B9286805F22C4101F0D1
:1011680035FC002085F8280438BD022038BD00BFB2
:1011780010B50446CAB212F0800F05D001F07F0303
:1011880000EB4313283303E000EB411303F50A7324
:101198000020987001F07F011970D2095A7094F8F4
:1011A8002824012A0AD0012284F828242068194614
:1011B80001F0B2FB002084F8280410BD022010BD05
:1011C80090F82834012B14D010B50446012380F878
:1011D800283411F0800F05D0006801F07F0101F07C
:1011E800D7F802E0006801F0D5F8002084F8280458
:1011F80010BD0220704700BF10B401F08004A4B2F3
:101208002CB101F07F0100EB4110283003E000EB26
:10121800411000F50A7012B98272838004E001223D
:101228008272C3801B0C038100205DF8044B704759
:1012380082B0084B1B68084AA2FB03235B0A00FB29
:1012480003F0019000BF019B5A1E0192002BF9D1B7
:1012580002B0704714000020D34D621070B582B000
:10126800044620B9AA484FF4B87101F075FF236805
:101278003BB113F00F0F04D1A54840F2711101F0F2
:101288006BFF236813F0010F78D0636853B1B3F58F
:10129800803F07D0B3F5A02F04D09D4840F27711C6
:1012A80001F05AFF9B4B5B6803F00C03042B0AD038
:1012B800984B5B6803F00C03082B0DD1954B5B68CA
:1012C80013F4803F08D0934B1B6813F4003F55D0AC
:1012D8006368002B52D12CE26368B3F5803F05D1D7
:1012E8008C4A136843F48033136026E063B903F132
:1012F800804303F504331A6822F480321A601A68AE
:1013080022F480221A6018E0B3F5A02F0CD103F163
:101318008043A3F53C331A6842F480221A601A68A5
:1013280042F480321A6008E07A4B1A6822F480325C
:101338001A601A6822F480221A6063687BB1FFF78A
:101348005BF8054605E0FFF757F8401B642800F2F4
:10135800F281704B1B6813F4003FF4D00EE0FFF7E6
:101368004BF8054605E0FFF747F8401B642800F2F4
:10137800E481684B1B6813F4003FF4D1236813F031
:10138800020F60D02369012B04D9614840F2AB11E8
:1013980001F0E2FE63691F2B04D95D484FF4D67152
:1013A80001F0DAFE5B4B5B6813F00C0F0AD0594B67
:1013B8005B6803F00C03082B16D1564B5B6813F4DB
:1013C800803F11D1534B1B6813F0020F03D02369E0
:1013D800012B40F0B4814F4A136823F0F803616988
:1013E80043EAC10313602EE02369D3B101224A4BBB
:1013F8001A60FFF701F8054605E0FEF7FDFF401B00
:10140800022800F29E81434B1B6813F0020FF4D0B0
:10141800404A136823F0F803616943EAC103136083
:1014280011E000223C4B1A60FEF7E6FF054605E096
:10143800FEF7E2FF401B022800F28581354B1B684E
:1014480013F0020FF4D1236813F0080F31D0A36909
:10145800012B04D92E484FF4F67101F07DFEA369E3
:10146800ABB101222D4B1A60FEF7C6FF054605E019
:10147800FEF7C2FF401B022800F26781254B5B6A1A
:1014880013F0020FF4D00120FFF7D2FE11E0002282
:10149800224B1A60FEF7B0FF054605E0FEF7ACFFE9
:1014A800401B022800F253811A4B5B6A13F0020FAB
:1014B800F4D1236813F0040F00F09680E368012B41
:1014C80006D9052B04D0124840F21B2101F044FE36
:1014D800104BDB6913F0805F0BD10E4BDA6942F0D9
:1014E8008052DA61DB6903F080530193019B012587
:1014F80000E000250A4B1B6813F4807F1DD1084AC1
:10150800136843F480731360FEF776FF06460FE016
:101518000455000800100240000042428004424284
:1015280000700040FEF768FF801B642800F21181FC
:10153800904B1B6813F4807FF4D0E368012B05D12E
:101548008D4A136A43F00103136222E063B903F181
:10155800804303F504331A6A22F001021A621A6AF8
:1015680022F004021A6214E0052B09D1824B1A6A90
:1015780042F004021A621A6A42F001021A6208E092
:101588007D4B1A6A22F001021A621A6A22F00402DA
:101598001A62E3688BB1FEF72FFF064607E0FEF7F5
:1015A8002BFF801B41F28833984200F2D480724BA3
:1015B8001B6A13F0020FF2D010E0FEF71DFF06467B
:1015C80007E0FEF719FF801B41F28833984200F2CA
:1015D800C480694B1B6A13F0020FF2D125B1664A29
:1015E800D36923F08053D361E369022B04D963489C
:1015F80040F2B92101F0B0FDE369002B00F0AF80A3
:101608005D4A526802F00C02082A00F0AA80022BF8
:101618007CD1236A3BB1B3F5803F04D0574840F2F0
:10162800C22101F099FD636A73B3B3F5802F2BD003
:10163800B3F5002F28D0B3F5402F25D0B3F5801F80
:1016480022D0B3F5A01F1FD0B3F5C01F1CD0B3F52F
:10165800E01F19D0B3F5001F16D0B3F5101F13D033
:10166800B3F5201F10D0B3F5301F0DD0B3F5401FD0
:101678000AD0B3F5501F07D0B3F5601F04D03F4818
:1016880040F2C32101F068FD00223D4B1A60FEF7CD
:10169800B3FE054604E0FEF7AFFE401B022862D801
:1016A800354B1B6813F0007FF5D1236AB3F5803FF3
:1016B80010D1A3683BB1B3F5003F04D02F4840F2E6
:1016C800D92101F049FD2C494B6823F40032A36865
:1016D80013434B602848436823F47411236A626AF1
:1016E80013430B4343600122254B1A60FEF784FE27
:1016F800044604E0FEF780FE001B022835D81E4B86
:101708001B6813F0007FF5D0002031E000221C4B4D
:101718001A60FEF771FE044604E0FEF76DFE001B3A
:10172800022824D8144B1B6813F0007FF5D1002041
:101738001EE001201CE003201AE0032018E001202D
:1017480016E0032014E0032012E0032010E0032039
:101758000EE003200CE003200AE0032008E000204C
:1017680006E0012004E0032002E0032000E003205B
:1017780002B070BD0070004000100240045500081F
:101788006000424230B486B0164D02AC28686968E1
:10179800AA68EB680FC42B8AADF80430124B5B685B
:1017A80003F00C02082A19D1C3F3834206A90A449C
:1017B80012F8100C13F4803F0CD00B4B5B68C3F38A
:1017C80040430B4413F8142C084B03FB00F0B0FB08
:1017D800F2F004E0064B03FB00F000E0034806B01B
:1017E80030BC7047F05400080010024000127A0024
:1017F80000093D0070B50D46044620B9894840F2FD
:101808002E3101F0A9FC236813F00F0F04D185488D
:1018180040F22F3101F0A0FC022D04D981484FF489
:101828004C7101F099FC804B1B6803F00703AB4235
:101838000BD27D4A136823F007032B431360136808
:1018480003F00703AB4240F0DC80236813F0020F7B
:101858001DD0A368A3B1802B12D0902B10D0A02B41
:101868000ED0B02B0CD0C02B0AD0D02B08D0E02B38
:1018780006D0F02B04D06B4840F2493101F06CFCE3
:101888006A494B6823F0F002A36813434B6023684E
:1018980013F0010F57D06368022B04D961484FF445
:1018A800547101F059FC6268012A05D15F4B1B682D
:1018B80013F4003F0ED1A6E0022A05D15B4B1B684A
:1018C80013F0007F06D1A0E0584B1B6813F0020FFD
:1018D80000F09D8055494B6823F0030313434B6088
:1018E800FEF78AFD06466368012B0FD107E0FEF775
:1018F80083FD801B41F28833984200F28A804B4B6B
:101908005B6803F00C03042BF1D11CE0022B15D10A
:1019180006E0FEF771FD801B41F2883398427AD8C1
:10192800424B5B6803F00C03082BF2D10BE0FEF787
:1019380063FD801B41F2883398426ED83B4B5B684D
:1019480013F00C0FF3D1384B1B6803F00703AB42BD
:101958000AD9354A136823F007032B431360136829
:1019680003F00703AB425AD1236813F0040F19D0D0
:10197800E36883B1B3F5806F0DD0B3F5A06F0AD0DB
:10198800B3F5C06F07D0B3F5E06F04D025484FF426
:10199800697101F0E1FB25494B6823F4E062E368D3
:1019A80013434B60236813F0080F1AD0236983B1DF
:1019B800B3F5806F0DD0B3F5A06F0AD0B3F5C06F43
:1019C80007D0B3F5E06F04D0164840F2AB3101F010
:1019D800C3FB164A536823F46053216943EAC103E1
:1019E8005360FFF7CFFE114B5B68C3F30313104A34
:1019F800D35CD8400F4B18600020FEF7B9FC0020DC
:101A080070BD012070BD012070BD012070BD012096
:101A180070BD032070BD032070BD032070BD012080
:101A280070BD00BF045500080020024000100240AD
:101A3800D856000814000020014B1868704700BFF2
:101A48001400002008B5FFF7F7FF044B5B68C3F3E9
:101A58000223034AD35CD84008BD00BF00100240EF
:101A6800E856000808B5FFF7E7FF044B5B68C3F3C7
:101A7800C223034AD35CD84008BD00BF001002400F
:101A8800E856000870B582B00446036813F0130FD7
:101A980003D156487C2101F05FFB236813F0010F46
:101AA8006BD0636863B1B3F5807F09D0B3F5007F6D
:101AB80006D0B3F5407F03D04C48822101F04CFB9F
:101AC8004B4BDB6913F0805F0BD1494BDA6942F06D
:101AD8008052DA61DB6903F080530193019B012690
:101AE80000E00026434B1B6813F4807F12D1414A63
:101AF800136843F480731360FEF77EFC054604E028
:101B0800FEF77AFC401B642868D83A4B1B6813F42C
:101B1800807FF5D0364B1B6A13F4407321D062687E
:101B280002F440729A421CD0314A136A23F440707E
:101B3800314901250D6000250D60106213F0010F79
:101B48000FD0FEF759FC054606E0FEF755FC401B92
:101B580041F28833984243D8254B1B6A13F0020F91
:101B6800F3D023490B6A23F44072636813430B6272
:101B78001EB1CB6923F08053CB61236813F0020FA9
:101B880015D0A36863B1B3F5804F09D0B3F5004F02
:101B980006D0B3F5404F03D01448C92101F0DCFA50
:101BA80013494B6823F44042A36813434B602368EE
:101BB80013F0100F16D0E368B3F5800F05D023B1EA
:101BC8000A4840F2251101F0C7FA09494B6823F485
:101BD8008002E36813434B60002004E0032002E026
:101BE800032000E0002002B070BD00BF305500089F
:101BF8000010024000700040400442420268D3686E
:101C080023F49073D3600268536923F0010353618E
:101C1800202380F83A30704790F83930DBB2212B16
:101C28002AD18368B3F5805F0FD1036A02681B88E5
:101C3800C3F30803536003691BB9036A02330362E1
:101C480009E0036A0133036205E00268036A591C6C
:101C580001621B785360C38C013B9BB2C3846BB990
:101C68000268D36823F08003D3600268D36843F026
:101C78004003D3600020704702207047002070475F
:101C88002DE9F84381464268844B9A4204D9844836
:101C980040F6A71101F060FAD9F80C303BB1B3F562
:101CA800005F04D07E4840F6A81101F055FAD9F833
:101CB800103053B1B3F5806F07D0B3F5C06F04D0BF
:101CC800774840F6A91101F047FAD9F814304FF6D1
:101CD800F372134200D123B9714840F6AA1101F0FA
:101CE8003BFAD9F800100B6923F44052D9F80C30AC
:101CF80013430B61D9F80810D9F810301943D9F8F3
:101D080014301943D9F80000C26822F4B05323F004
:101D18000C030B43C360D9F800104B6923F44072DD
:101D2800D9F8183013434B61D9F800505D4B9D42E8
:101D380059D1FFF797FE00EB800000EB8000D9F83F
:101D48000440A400B0FBF4F4574EA6FB0434640925
:101D58002401FFF787FE00EB800000EB8000D9F834
:101D680004309B00B0FBF3F7FFF77CFE00EB80002C
:101D780000EB8000D9F804309B00B0FBF3F3A6FB1E
:101D880003235B094FF0640808FB13731B0132330C
:101D9800A6FB03235B0903F0F0031C44FFF762FE74
:101DA80000EB800000EB8000D9F804309B00B0FB0A
:101DB800F3F7FFF757FE00EB800000EB8000D9F83F
:101DC80004309B00B0FBF3F3A6FB03235B0908FB7D
:101DD80013731B013233A6FB0323C3F343131C44C1
:101DE800AC60BDE8F883FFF72DFE00EB800000EB48
:101DF8008000D9F80440A400B0FBF4F42A4EA6FBF6
:101E0800043464092401FFF71DFE00EB800000EB99
:101E18008000D9F804309B00B0FBF3F7FFF712FEFF
:101E280000EB800000EB8000D9F804309B00B0FB89
:101E3800F3F3A6FB03235B094FF0640808FB137355
:101E48001B013233A6FB03235B0903F0F0031C4498
:101E5800FFF7F8FD00EB800000EB8000D9F80430B4
:101E68009B00B0FBF3F7FFF7EDFD00EB800000EB04
:101E78008000D9F804309B00B0FBF3F3A6FB0323E2
:101E88005B0908FB13731B013233A6FB0323C3F35F
:101E980043131C44AC60BDE8F88300BF20AA44008B
:101EA80060550008003801401F85EB512DE9F041CD
:101EB80006460C4617469846069D1EE0B5F1FF3FBC
:101EC8001BD02DB1FEF798FAC8EB0000A84214D930
:101ED8003268D36823F4D073D3603268536923F02F
:101EE80001035361202386F8393086F83A300023FD
:101EF80086F838300320BDE8F08133681B6823403A
:101F0800A34214BF00230123BB42D7D00020BDE861
:101F1800F08100BF00286DD010B5044683690BB36B
:101F28000368354A93420CD0A2F57442934208D014
:101F380002F58062934204D0304840F20F1101F05C
:101F48000BF9A369FBB1B3F5807F1CD0B3F5007F13
:101F580019D0B3F5407F16D028484FF4887101F0A6
:101F6800FBF810E00368244A93420CD0A2F57442AF
:101F7800934208D002F58062934204D01F484FF480
:101F88008A7101F0E9F8A3683BB1B3F5805F04D02A
:101F98001A484FF48B7101F0DFF894F8393013F0D8
:101FA800FF0F05D1002384F83830204601F01EF9D0
:101FB800242384F839302268D36823F40053D3608B
:101FC8002046FFF75DFE2268136923F490431361EE
:101FD8002268536923F02A0353612268D36843F4C3
:101FE8000053D3600020E063202384F8393084F85C
:101FF8003A3010BD01207047003801406055000894
:102008002DE9F04182B004461E4690F83930DBB223
:10201800202B54D10D469046002952D0002A52D088
:1020280090F83830012B50D0012380F83830002345
:10203800C363212380F83930FEF7DEF90746A4F898
:102048002480A4F8268026E0E38C013B9BB2E3843D
:10205800A368B3F5805F12D1009620468021002244
:102068003B46FFF723FF90BB22682B88C3F3080386
:10207800536023690BB902350DE001350BE000967A
:102088002046802100223B46FFF710FF08BB23684B
:102098002A785A600135E38C9BB2002BD4D1009684
:1020A8002046402100223B46FFF700FF034690B937
:1020B800202284F83920002284F838200CE00223FA
:1020C8000AE0012308E0012306E0022304E00323D9
:1020D80002E0032300E00323184602B0BDE8F081C4
:1020E80090F83A30DBB2202B20D109B312B390F824
:1020F8003830012B20D081628285C2850023C363DA
:10210800222280F83A2080F838300168CA6842F400
:102118008072CA6001684A6942F001024A61016836
:10212800CA6842F02002CA60184670470220704709
:10213800012070470120704702207047704700BF98
:1021480008B50168CB6823F04003CB60202380F8F2
:102158003930FFF7F3FF002008BD00BF08B590F83D
:102168003A30DBB2222B43D18368B3F5805F13D1B9
:10217800826A036943B903685B68C3F30803138081
:10218800836A0233836218E003685B68DBB21380FA
:10219800836A0133836210E0036933B9836A5A1C86
:1021A8008262026852681A7007E0826A531C83626E
:1021B80003685B6803F07F031370C38D013B9BB218
:1021C800C385BBB90268D36823F02003D3600268D3
:1021D800D36823F48073D3600268536923F0010342
:1021E8005361202380F83A3000F026FF002008BD14
:1021F800022008BD002008BD704700BF10B5044686
:1022080002681368D168526913F00F0009D113F0FE
:10221800200F06D011F0200F03D02046FFF79EFFB5
:1022280010BD002862D012F0010202D111F4907F93
:102238005CD013F0010F06D011F4807F03D0E06B5F
:1022480040F00100E06313F0040F04D01AB1E06B12
:1022580040F00200E06313F0020F04D01AB1E06B03
:1022680040F00400E06313F0080F04D01AB1E26BE9
:1022780042F00802E263E26B002A4AD013F0200F12
:1022880005D011F0200F02D02046FFF767FF236822
:102298005B6903F04003E26B12F0080F00D1FBB159
:1022A8002046FFF7ABFC23685A6912F0400F13D0A1
:1022B8005A6922F040025A61636B4BB1154A5A635E
:1022C800606BFEF74BF920B3606B436B984710BD0A
:1022D8002046FFF791FF10BD2046FFF78DFF10BD88
:1022E8002046FFF789FF0023E36310BD13F0800F3A
:1022F80006D011F0800F03D02046FFF78DFC10BDEB
:1023080013F0400F05D011F0400F02D02046FFF720
:1023180017FF10BD2123000808B5406A0023C385B4
:10232800C384FFF769FF08BD84B001A880E80E00E8
:10233800002004B0704700BFB0F840309BB243F4AF
:102348003F43A0F840300020704700BFB0F840304D
:1023580023F474535B045B0CA0F8403000207047F2
:102368000020704784B038B505AC84E80E0001231E
:10237800A0F840300024A0F84040A0F84440A0F85D
:102388005040FFF7D9FF2046BDE8384004B07047F9
:10239800002070470020704710B4CB78032B35D845
:1023A800DFE803F002280F1B0A7830F822309BB2CE
:1023B80023F4EC4323F0700343F4007320F8223035
:1023C80024E00A7830F822309BB223F4EC4323F05F
:1023D80070039BB220F8223018E00A7830F82230D7
:1023E8009BB223F4EC4323F0700343F4C06320F85A
:1023F80022300BE00A7830F822309BB223F4EC4309
:1024080023F0700343F4806320F822300A7830F810
:10241800223023F0F0031B051B0D134343F4004344
:1024280043F0800320F822308B7A002B40F08A801A
:102438004B7883B3B0F850309BB20A7803EBC203F1
:1024480000EB43038A8852085200C3F800240A7834
:1024580030F8223003F040039BB25BB130F82230F1
:1024680023F0F0031B051B0D43F4004343F0C003A6
:1024780020F822300A7830F822309BB223F4E04367
:1024880023F0400383F0200343F4004343F0800328
:1024980020F8223019E1B0F850309BB20A7803EBEB
:1024A800C20300EB43038A8852085200C3F8082489
:1024B800B0F850309BB20A7803EBC203063300EB46
:1024C80043030C693E2C0ED9C4F34F1214F01F0FAE
:1024D80001D1013A92B26FEAC2626FEA524292B2F5
:1024E800C3F800240AE0C4F34F0214F0010F01D02E
:1024F800013292B2920292B2C3F800240A7830F8FC
:10250800223003F480439BB25BB130F8223023F0D1
:10251800F0031B051B0D43F4404343F0800320F8F0
:1025280022300A7830F822309BB223F4804323F01B
:10253800700383F4405343F4004343F0800320F8CE
:102548002230C2E00A7830F8223023F4F8731B05F1
:102558001B0D43F4014343F0800320F82230B0F808
:1025680050309BB20A7803EBC20300EB4303CA88DE
:1025780052085200C3F80024B0F850309BB20A78D1
:1025880003EBC20300EB43030A8952085200C3F865
:1025980008244B78002B4DD10A7830F8223003F408
:1025A80080439BB25BB130F8223023F0F0031B0567
:1025B8001B0D43F4404343F0800320F822300A788F
:1025C80030F8223003F040039BB25BB130F8223080
:1025D80023F0F0031B051B0D43F4004343F0C00335
:1025E80020F822300A7830F8223023F0F0031B0557
:1025F8001B0D43F4004343F0C00320F822300C784D
:1026080030F824309BB223F4804323F0700383F422
:10261800405348F28002134320F82430097830F8F8
:1026280021309BB223F4E04323F04003134320F806
:1026380021304AE00A7830F8223003F480439BB214
:102648005BB130F8223023F0F0031B051B0D43F477
:10265800404343F0800320F822300A7830F82230D3
:1026680003F040039BB25BB130F8223023F0F00353
:102678001B051B0D43F4004343F0C00320F8223030
:102688000A7830F8223023F0F0031B051B0D43F4C1
:10269800404343F0800320F822300C7830F824308F
:1026A8009BB223F4E04323F0400348F28002134333
:1026B80020F82430097830F821309BB223F4804385
:1026C80023F07003134320F8213000205DF8044BF9
:1026D800704700BF8B7A002B46D14B7813B30A782A
:1026E80030F8223003F040039BB25BB130F822305F
:1026F80023F0F0031B051B0D43F4004343F0C00314
:1027080020F822300A7830F822309BB223F4E043D4
:1027180023F0400343F4004343F0800320F82230C1
:10272800002070470A7830F8223003F480439BB2C7
:102738005BB130F8223023F0F0031B051B0D43F486
:10274800404343F0800320F822300A7830F82230E2
:102758009BB223F4804323F0700343F4004343F017
:10276800800320F82230DBE710B44B78002B4BD1E4
:102778000A7830F8223003F480439BB25BB130F81A
:10278800223023F0F0031B051B0D43F4404343F0B4
:10279800800320F822300A7830F8223003F0400312
:1027A8009BB25BB130F8223023F0F0031B051B0D00
:1027B80043F4004343F0C00320F822300A7830F88D
:1027C800223023F0F0031B051B0D43F4004343F0B4
:1027D800C00320F822300C7830F824309BB223F460
:1027E800804323F0700348F28002134320F824301A
:1027F800097830F821309BB223F4E04323F04003FA
:10280800134320F821304AE00A7830F8223003F4E4
:1028180080439BB25BB130F8223023F0F0031B05F4
:102828001B0D43F4404343F0800320F822300A781C
:1028380030F8223003F040039BB25BB130F822300D
:1028480023F0F0031B051B0D43F4004343F0C003C2
:1028580020F822300A7830F8223023F0F0031B05E4
:102868001B0D43F4404343F0800320F822300C78DA
:1028780030F824309BB223F4E04323F0400348F2BD
:102888008002134320F82430097830F821309BB2B5
:1028980023F4804323F07003134320F821300020F1
:1028A8005DF8044B704700BF0A788AB930F82230C7
:1028B8009BB223F4804323F0400383F4805383F0D6
:1028C800100343F4004343F0800320F8223020E053
:1028D8004B787BB130F822309BB223F4E04323F0ED
:1028E800400383F0100343F4004343F0800320F8CF
:1028F80022300EE030F822309BB223F4804323F0DC
:10290800700383F4805343F4004343F0800320F8BA
:1029180022300020704700BF4B781BB30A7830F88C
:10292800223003F040039BB25BB130F8223023F031
:10293800F0031B051B0D43F4004343F0C00320F8CC
:1029480022300A7830F822309BB223F4E04323F097
:10295800400383F0300343F4004343F0800320F83E
:10296800223022E00A7830F8223003F480439BB208
:102978005BB130F8223023F0F0031B051B0D43F444
:10298800404343F0800320F822300A7830F82230A0
:102998009BB223F4804323F0700383F4405343F441
:1029A800004343F0800320F822300020704700BF26
:1029B80011B98023A0F84C300020704700207047E0
:1029C80000207047B0F8440080B27047002070477C
:1029D80010B401335B1000EB420202F5806207E09D
:1029E8000C78487844EA002422F8044B0231013B71
:1029F800002BF5D15DF8044B704700BF70B54A78DD
:102A0800012A40F0BF808E690B699E4203D9F61AED
:102A18008E611E4601E000238B610D4604468B7AC9
:102A28007BB94969AA88B3B2FFF7D2FFB4F850302E
:102A38009BB22A7803EBC20304EB4303C3F8046494
:102A48008FE0097830F8213003F040039BB293B34C
:102A580022BBB0F850309BB203EBC101063100EB4A
:102A680041013E2E0ED9C6F34F1316F01F0F01D1A8
:102A7800013B9BB26FEAC3636FEA53439BB2C1F851
:102A8800003416E0C6F34F0316F0010F01D00133EE
:102A98009BB29B029BB2C1F800340AE0012A08D11C
:102AA800B0F850309BB203EBC10300EB4303C3F80B
:102AB80004642A8931E022BBB0F850309BB203EBA2
:102AC800C101023100EB41013E2E0ED9C6F34F136E
:102AD80016F01F0F01D1013B9BB26FEAC3636FEA87
:102AE80053439BB2C1F8003416E0C6F34F0316F007
:102AF800010F01D001339BB29B029BB2C1F8003495
:102B08000AE0012A08D1B0F850309BB203EBC103A8
:102B180000EB4303C3F80464EA8820466969B3B24A
:102B2800FFF756FF6B786BB92A7834F8223023F018
:102B3800F0031B051B0D43F4004343F0C00324F8C6
:102B480022300EE0012B0CD12A7834F8223023F001
:102B5800F0031B051B0D43F4404343F0800324F8A6
:102B680022302A7834F822309BB223F4E04323F051
:102B7800400383F0300343F4004343F0800324F818
:102B88002230A8E08B690C69A34203D91B1B8B6117
:102B9800234601E000248C618C7A2CBBB0F85020CD
:102BA80092B20C7802EBC402063200EB42023E2BD2
:102BB8000ED9C3F34F1413F01F0F01D1013CA4B277
:102BC8006FEAC4646FEA5444A4B2C2F8004472E0E5
:102BD800C3F34F0413F0010F01D00134A4B2A402CF
:102BE800A4B2C2F8004466E02ABBB0F8502092B202
:102BF8000C7802EBC402023200EB42023E2B0ED9E3
:102C0800C3F34F1413F01F0F01D1013CA4B26FEAB4
:102C1800C4646FEA5444A4B2C2F8004417E0C3F392
:102C28004F0413F0010F01D00134A4B2A402A4B2DE
:102C3800C2F800440BE0012A09D1B0F8502092B242
:102C48000C7802EBC40200EB4202C2F804344A7862
:102C58002ABBB0F8502092B20C7802EBC4020632BC
:102C680000EB42023E2B0ED9C3F34F1413F01F0F93
:102C780001D1013CA4B26FEAC4646FEA5444A4B21F
:102C8800C2F8004417E0C3F34F0413F0010F01D05A
:102C98000134A4B2A402A4B2C2F800440BE0012A91
:102CA80009D1B0F8502092B20C7802EBC40200EBC4
:102CB8004202C2F804340A7830F822309BB223F476
:102CC800804323F0700383F4405343F4004343F0FC
:102CD800800320F82230002070BD00BF01335B1054
:102CE80000EB420202F5806204E0106821F8020B52
:102CF800013B0432002BF8D1704700BFFEE700BF4C
:102D080008B50D4B1B6813B90C4A0B4B1A600A4BDC
:102D18001A68C31C23F00303134409498B4206D9DC
:102D280001F06CFF0C2303604FF0FF3008BD02492F
:102D38000B60104608BD00BFEC000020D01B00202F
:102D4800004C002001230360014B0B60704700BF5B
:102D58000C0000200FB400B583B004AB53F8042B6B
:102D680001930848802101F083FF011E03DD054817
:102D780000F03CF80146084603B05DF804EB04B0E7
:102D8800704700BFF40000202DE9F04385B00446E9
:102D98000F46435C13BB042528462146ABBE0446B8
:102DA8001FE03546102E28BF1025002306E014F832
:102DB800011B04AA1A4402F8101C0133AB42F6D3D3
:102DC80004AA1344002203F8102CE9464FF0040823
:102DD80040464946ABBE8046761B00E00E46002EB4
:102DE800DFD1384605B0BDE8F08300BF08B5FFF76E
:102DF800CBFF08BD08B500F097F8024B024A9A606D
:102E080008BD00BF00ED00E00000000808B500F0B4
:102E1800B1F808BDF8B504460D4617461E462648C3
:102E2800FFF798FF25482168FFF794FF2448616859
:102E3800FFF790FF2348A168FFF78CFF2248E1685D
:102E4800FFF788FF21482169FFF784FF204861695F
:102E5800FFF780FF1F48A169FFF77CFF1E48E16963
:102E6800FFF778FF1D48FFF775FF1D482946FFF754
:102E780071FF1C4CE16A1C48FFF76CFF216B1B4873
:102E8800FFF768FFE16B1A48FFF764FF15F0800F42
:102E980003D018483946FFF75DFF15F4004F03D0FB
:102EA80015483146FFF756FF1448FFF753FF1448FB
:102EB8000699FFF74FFFF8BD90550008A055000888
:102EC800B0550008C0550008D0550008E055000866
:102ED800F055000800560008105600082056000853
:102EE8002C56000800ED00E03C5600084C5600083F
:102EF8005C5600086C5600087C5600088C56000882
:102F08009456000883691A888A4207D10268033AEE
:102F1800012A05D8023383610120704700207047D9
:102F280000207047FEE700000F4B1A6842F00102CC
:102F38001A6059680D4A0A405A601A6822F0847269
:102F480022F480321A601A6822F480221A605A68C1
:102F580022F4FE025A604FF41F029A604FF000629A
:102F6800034B9A60704700BF001002400000FFF852
:102F780000ED00E01F4B5B6803F00C03042B06D048
:102F8800082B08D03BBB1C4A1C4B1A6026E01A4A87
:102F98001A4B1A6022E0174A53685268C3F38343F6
:102FA800023312F4803F05D1154A02FB03F3134A9A
:102FB800136013E00F4A526812F4003F05D0104A1C
:102FC80002FB03F30D4A136008E00B4A02FB03F30C
:102FD8000A4A136002E0084A084B1A60054B5B680E
:102FE800C3F30313074AD15C044A1368CB40136048
:102FF800704700BF0010024000127A001400002041
:1030080000093D00D856000882B00A4B9A6942F080
:1030180020029A619A6902F020020092009A9A6945
:1030280042F004029A619B6903F004030193019B37
:1030380002B070470010024008B50268034B9A427C
:1030480003D10348012100F069F908BD00380140A7
:103058008C010020FEE700BF08B50B480B4B03604E
:103068004FF4E133436000238360C36003610C22A3
:1030780042618361C361FEF74DFF18B104487121B5
:10308800FFF7E8FF08BD00BF7C05002000380140BD
:10309800F056000800B595B001220A924FF480332B
:1030A8000B9300210C910E920222119212934FF46D
:1030B800E01313930AA8FEF7D1F818B11A483F2174
:1030C800FFF7C8FF0F2305930221069100230793FA
:1030D8004FF480620892099305A8FEF78BFB18B19C
:1030E80011484D21FFF7B6FF1023019300230493E5
:1030F80001A8FEF7C7FC18B10B485421FFF7AAFF37
:10310800FEF79AFC094BA3FB00308009FDF7EEF9A6
:103118000420FDF701FA4FF0FF3000210A46FDF7C1
:103128008FF915B05DF804FBF0560008D34D621016
:1031380008B5FDF743F9FFF7ADFFFFF765FF00F0AE
:10314800B9F8FFF789FF034B1A68D36843F02003E7
:10315800D360FEE77C050020704700BF00B583B050
:10316800204B9A6942F001029A619B6903F00103BE
:103178000193019B0320FDF745F96FF00B00002137
:103188000A46FDF75DF96FF00A0000210A46FDF7CF
:1031980057F96FF0090000210A46FDF751F96FF061
:1031A800040000210A46FDF74BF96FF003000021E7
:1031B8000A46FDF745F96FF0010000210A46FDF7C0
:1031C8003FF94FF0FF3000210A46FDF739F9064A6A
:1031D800536823F0E06343F00073536003B05DF875
:1031E80004FB00BF00100240000001400268184BB9
:1031F8009A422CD130B587B003F558439A6942F406
:1032080080429A619B6903F480430193019B4FF4C8
:103218000073029302230393032305930D4D28465D
:1032280002A9FDF7E7F94FF48063029300240394A1
:103238000494284602A9FDF7DDF9252021462246F7
:10324800FDF7FEF82520FDF73DF907B030BD7047C2
:103258000038014000080140704700BFFEE700BF8A
:10326800FEE700BFFEE700BFFEE700BF704700BFF4
:10327800704700BF704700BF08B5FDF7B1F8FDF70C
:1032880069F908BD08B50248FDF796FE08BD00BFFC
:103298004810002010B5054C2046FEF7AFFF204629
:1032A80003490122FEF71CFF10BD00BF7C0500206A
:1032B8008C01002010B5094C20460949002200F075
:1032C80013FA2046074900F027FA2046064900F07D
:1032D800ABFE204600F028FA10BD00BF24060020EF
:1032E800280000204400002018000020002070471B
:1032F8000020704710B5064C20460649002200F011
:103308009BFE2046044900F09FFE002010BD00BF30
:1033180024060020600C00207808002070B50546BF
:103328000C460B482946224601F06EFC094BD3F89F
:103338002032D3F814324BB9064E3046294622467D
:1033480000F07AFE304600F085FE70BD012070BDA9
:10335800600C00202406002038B505460C46098874
:10336800FFF7DCFF0748294622886423FEF748FE5A
:10337800054C2046294600F067FE204600F082FEF4
:10338800002038BD7C0500202406002002680E4B72
:103398009A4217D100B583B003F5DA33DA6942F4FB
:1033A8000002DA61DB6903F400030193019B142036
:1033B80000210A46FDF744F81420FDF783F803B00E
:1033C8005DF804FB704700BF005C004008B501468B
:1033D800D0F85C0401F22C4100F0C2F908BD00BF2E
:1033E80008B500EB4113D0F85C04D3F83C2200F098
:1033F800E5F908BD08B500EB4113D0F85C04DA6BB9
:1034080000F00CFA08BD00BF08B5D0F85C0400F065
:103418008BFA08BD10B50446D0F85C04012100F011
:103428006FFAD4F85C0400F04BFA10BD10B50446EE
:10343800D0F85C0400F068FAA36923B1024A136962
:1034480043F00603136110BD00ED00E008B5D0F8A5
:103458005C0400F063FA08BD10B504461F48C0F8C4
:103468005C44C4F828021E4B03600823436002230F
:1034780083600323C36000238361C3610362FDF794
:103488003BFA20B117484FF49771FFF7E3FDD4F8E2
:10349800280200210A461823FDF7AEFED4F82802B8
:1034A800802100225823FDF7A7FED4F828028121A5
:1034B8000022C023FDF7A0FED4F828020121002233
:1034C8004FF48873FDF798FED4F828028221002271
:1034D8004FF48073FDF790FE002010BD48100020C7
:1034E800005C00400057000808B5D0F82802FDF736
:1034F8007FFA10B1022802D003E0002008BD0120A5
:1035080008BD022008BD00BF10B51446D0F8280237
:103518001A462346FDF798FA10B1022802D003E0B4
:10352800002010BD012010BD022010BD08B5D0F844
:103538002802FDF7B3FA10B1022802D003E00020F8
:1035480008BD012008BD022008BD00BF08B5D0F89D
:103558002802FDF735FE10B1022802D003E0002052
:1035680008BD012008BD022008BD00BF08B5D0F87D
:103578002802FDF7CFFD10B1022802D003E0002099
:1035880008BD012008BD022008BD00BF08B5D0F85D
:103598002802FDF7EDFD10B1022802D003E000205B
:1035A80008BD012008BD022008BD00BFD0F82822B0
:1035B80011F0800F06D001F07F0302EB431191F860
:1035C8002A00704701F07F0102EB411191F82A02AD
:1035D800704700BF08B5D0F82802FDF721FA10B1EE
:1035E800022802D003E0002008BD012008BD022007
:1035F80008BD00BF08B5D0F82802FDF79FFA10B142
:10360800022802D003E0002008BD012008BD0220E6
:1036180008BD00BF08B5D0F82802FDF767FA10B159
:10362800022802D003E0002008BD012008BD0220C6
:1036380008BD00BF08B5D0F82802FDF777FA08BD25
:10364800704700BF12230B800048704718570008C6
:1036580004230B80004870471457000810B50A4629
:10366800034C0448214600F0C3FB204610BD00BFB0
:10367800A81400202C57000810B50A46034C04482B
:10368800214600F0B5FB204610BD00BFA81400205D
:103698004057000810B50A46034C0448214600F07C
:1036A800A7FB204610BD00BFA814002054570008EF
:1036B80010B50A46034C0448214600F099FB204601
:1036C80010BD00BFA81400206457000810B50A46B2
:1036D800034C0448214600F08BFB204610BD00BF78
:1036E800A81400207057000898B108B50346D0F810
:1036F800140210B10020C3F8140209B1C3F8101263
:10370800012183F8FC111A701846FFF7A5FE002066
:1037180008BD0220704700BF19B1C0F8141200207C
:1037280070470220704700BF08B5FFF7DDFE002094
:1037380008BD00BF08B5D0F8143223B11B689847FC
:1037480018B1022008BD022008BD002008BD00BF36
:1037580008B5D0F814325B689847002008BD00BF50
:1037680038B5044600F50275284600F003F9012330
:10377800C4F8F431B4F80E32C4F8F83194F80812E9
:1037880001F01F03012B08D013B1022B0AD00EE061
:103798002046294600F05EFA0EE02046294600F051
:1037A8007DFA09E02046294600F094FA04E0204614
:1037B80001F08001FFF7DAFE002038BD38B5044675
:1037C80009BBD0F8F431032B26D1D0F80C31D0F84E
:1037D80010118B420AD95B1AC0F80C318B4228BFF2
:1037E8000B4611469AB200F049FB15E0D0F81432A6
:1037F8001B6923B190F8FC21032A00D19847204681
:1038080000F046FB08E0D0F814329B6923B190F829
:10381800FC21032A00D19847002038BD38B504465A
:10382800002942D1D0F8F431022B36D1C169036A9C
:1038380099420CD9CB1AC36111469AB200F004FB25
:10384800204600210A460B46FFF7E4FE25E0816981
:10385800B1FBF3F203FB121292B98B4210D8D0F8E5
:10386800F83199420CD200210A4600F0EDFA002303
:10387800C4F8F831204619461A46FFF7CBFE0CE08B
:10388800D4F81432DB682BB194F8FC21032A01D157
:1038980020469847204600F007FB94F80032012B99
:1038A8000CD1002384F8003208E0D0F814325B69A8
:1038B80023B190F8FC21032A00D19847002038BD95
:1038C80038B5044600210A464023FFF71DFE40256F
:1038D800C4F810512046802100222B46FFF714FE21
:1038E8002562012384F8FC31D4F820322BB1D4F8B6
:1038F80014325B68204621799847002038BD00BF04
:1039080001740020704700BF90F8FC3180F8FD3149
:10391800042380F8FC310020704700BF90F8FD3187
:1039280080F8FC310020704708B590F8FC31032B73
:1039380004D1D0F81432DB6903B19847002008BDE0
:103948000346002002E00130C0B201331A78002A91
:10395800F9D170474B88012B0BD110B50446C0F83C
:103968000432D0F814329B689847204600F090FA49
:1039780010BD70470B7803704B7843708B78CA780A
:1039880003EB022343800B794A7903EB02238380FC
:103998008B79CA7903EB0223C380704710B50446BC
:1039A8008021FFF7E3FD20460021FFF7DFFD10BD72
:1039B80030B583B005460C464A88130A013B062BEE
:1039C8006AD8DFE803F0040D156969576500D0F877
:1039D80010321B68007C0DF10601984701465FE034
:1039E800D0F814329B6A0DF106009847014657E05B
:1039F800D2B2052A3AD8DFE802F0030C151E2730A8
:103A0800D0F810325B68007C0DF10601984701463A
:103A180046E0D0F810329B68007C0DF1060198470B
:103A280001463DE0D0F81032DB68007C0DF106015C
:103A38009847014634E0D0F810321B69007C0DF13C
:103A48000601984701462BE0D0F810325B69007CEC
:103A58000DF106019847014622E0D0F810329B6923
:103A6800007C0DF106019847014619E02146FFF751
:103A780095FF22E0037C3BB9D0F81432DB6A0DF1E4
:103A88000600984701460BE02146FFF787FF14E040
:103A98002146FFF783FF10E02146FFF77FFF0CE088
:103AA800BDF806304BB1E2883AB19A4228BF1A46AF
:103AB800ADF80620284600F0B9F903B030BD00BFC4
:103AC80038B504468B88E3B9CB88D3B98D7805F02F
:103AD8007F0590F8FC31032B02D1FFF75FFF38BD5B
:103AE80080F8FE512946FFF775FD204600F0D0F911
:103AF8001DB1022384F8FC3138BD012384F8FC3160
:103B080038BD2046FFF74AFF38BD00BF38B5044628
:103B18000D468978264B1970012903D92946FFF7E4
:103B28003DFF38BD90F8FC31022B02D0032B15D095
:103B380039E081B14160032380F8FC31FFF7FAFDD9
:103B4800022804D120462946FFF728FF38BD204621
:103B580000F09EF938BD00F09BF938BD49B9022341
:103B680080F8FC314160FFF7F3FD204600F090F942
:103B780038BD4368994213D0D9B2FFF7E9FD0C4B21
:103B8800197861602046FFF7D5FD022804D1204648
:103B98002946FFF703FF38BD204600F079F938BD04
:103BA80000F076F938BD2946FFF7F8FE38BD00BFAA
:103BB8007401002008B50346CA88012A02D0FFF71D
:103BC800EDFE08BD90F8FC21022A02D0032A08D095
:103BD8000CE00146002241F8082F012200F026F9E6
:103BE80008BD191D012200F021F908BDFFF7D6FE16
:103BF80008BD00BF08B5034690F8FC21023A012A27
:103C08000DD80122C260D0F804220AB10322C26092
:103C1800184603F10C01022200F008F908BDFFF76D
:103C2800BDFE08BD10B5044690F8FC31023B012BDF
:103C38000DD84B88012B0CD10023C0F80432D0F8E2
:103C480014329B689847204600F022F910BDFFF710
:103C5800A5FE10BD08B54B78092B1BD8DFE803F08B
:103C680011171A141A08051A0E0BFFF7A1FE13E014
:103C7800FFF726FF10E0FFF749FF0DE0FFF79AFF77
:103C88000AE0FFF7B7FF07E0FFF764FE04E0FFF77D
:103C9800C9FF01E0FFF782FE002008BD38B50446E1
:103CA8000D4690F8FC31032B0FD10B79032B09D863
:103CB800D0F814329B689847EB8843B9204600F047
:103CC800E7F804E0FFF76AFE01E0FFF767FE00206F
:103CD80038BD00BF38B505460C468A88D1B223786E
:103CE80003F06003202B05D1D0F814329B682146DD
:103CF80098477BE06378012B26D0002B48D0032B14
:103D080074D190F8FC31022B02D0032B07D017E0B6
:103D180000296BD0802969D0FFF728FC66E063880A
:103D280023B919B1802901D0FFF720FCD5F8143246
:103D38009B68284621469847284600F0A9F855E090
:103D48002146FFF72BFE51E090F8FC31022B02D000
:103D5800032B07D018E0002948D0802946D0FFF768
:103D680005FC43E06388002B40D111F07F0F07D09A
:103D7800FFF70CFCD5F814329B6828462146984773
:103D8800284600F085F831E02146FFF707FE2DE0D0
:103D980090F8FC31022B02D0032B06D023E011F05F
:103DA8007F0F23D0FFF7E2FB20E012F0800F05D051
:103DB80001F07F0400EB0414143405E001F07F04E3
:103DC80000EB041404F582742846FFF7EFFB10B1EA
:103DD8000123236001E000232360284621460222B4
:103DE80000F024F802E02146FFF7D8FD002038BD96
:103DF800D0B170B50D4616460446FFF7A1FD013057
:103E0800400080B23080287003236B70022307E0E3
:103E18005A1CD2B20134E954531CDBB20021A95414
:103E280021780029F4D170BD704700BF38B50D4620
:103E380013460222C0F8F4218361C36100212A4697
:103E4800FFF7D8FB002038BD10B50C4613460021FB
:103E58002246FFF7CFFB002010BD00BF38B50D4646
:103E680013460322C0F8F421C0F80831C0F80C3119
:103E780000212A46FFF7CEFB002038BD10B50C46BE
:103E8800134600212246FFF7C5FB002010BD00BFE6
:103E980008B50423C0F8F43100210A460B46FFF7A1
:103EA800A9FB002008BD00BF08B50523C0F8F43100
:103EB80000210A460B46FFF7ADFB002008BD00BFF6
:103EC800D0F820321BB10020C3F81402704702203A
:103ED800704700BF10B5D0F82042D0F824325BB14B
:103EE80094F80002FF2807D09B68214694F8012225
:103EF8009847FF2384F80032002010BD70B50446AF
:103F0800812102224023FFF7FFFA204601210222E5
:103F18004023FFF7F9FA2046822103220823FFF7FE
:103F2800F3FA0A4DC4F82052D4F824321B68984793
:103F38000026C5F81462C5F8186220460121D5F894
:103F480004224023FFF766FB304670BD2815002089
:103F580010B504468121FFF7E9FA20460121FFF751
:103F6800E5FA20468221FFF7E1FAD4F8203233B18E
:103F7800D4F824325B6898470023C4F82032002024
:103F880010BD00BF70B505460C46D0F820620B780E
:103F980013F0600224D0202A29D1CA88CAB113F0AC
:103FA800800F0BD0D0F824329B6848783146984768
:103FB80028463146E288FFF739FF18E04B7886F843
:103FC8000032CB8886F801323146E288FFF746FF97
:103FD8000DE0D0F824329B6848780022984706E024
:103FE8004B780A2B03D103490122FFF71FFF00205A
:103FF80070BD00BF7501002038B50446D0F82052C6
:10400800FFF718FBC5F80C02D4F820324BB1D4F8EE
:104018002432DB68D5F8040205F5037198470020BF
:1040280038BD022038BD00BF19B1C0F824120020E5
:1040380070470220704700BFD0F82032C3F808123A
:10404800C3F8102200207047D0F82032C3F80412B9
:104058000020704708B5D0F8203273B1D3F8142285
:104068006AB90122C3F814228121D3F80822B3F8CF
:104078001032FFF7BFFA002008BD022008BD01205A
:1040880008BD00BF08B5D0F820323BB10121D3F8F4
:1040980004224023FFF7BEFA002008BD022008BD15
:1040A80038B50546D0F81842237E33B9636923B181
:1040B800637A13B90121FFF759FA28468121FFF7DE
:1040C80055FA637A022B06D12846012104F10C0225
:1040D8001F23FFF79FFA38BD10B50C46D0F8181209
:1040E8004B699A4228BF1A4693B24A6BD21A4A635E
:1040F800002281F8382004220A7281212246FFF723
:1041080079FA10BD38B50546D0F81842002020725B
:10411800607284F8790484F87804D5F81C321B6836
:10412800984728460121FFF711FA28468121FFF711
:104138000DFA2846012104F10C021F23FFF76AFA41
:1041480038BD00BF08B5D0F818220023137201212A
:1041580051720C321F23FFF75DFA08BDD0F81832F0
:1041680000221A72704700BF38B50546D0F81842C9
:10417800094BE36284F8381000232372812104F18B
:104188002C020D23FFF736FA2846012104F10C0210
:104198001F23FFF73FFA38BD5553425310B5044665
:1041A800D0F81822137A022B03D010D3042B0BD982
:1041B80010BD517E1B3200F0C5FB002807DA2046EF
:1041C8000121FFF7D1FF10BD0021FFF7CDFF10BD82
:1041D80038B50546D0F818422369236363696363D9
:1041E8000121FFF727FA1F280AD1E268204B9A42DB
:1041F80006D1617E012903D8A37E0BB1102B0BD900
:104208002846617E0522202300F0F6F80223637217
:104218002846FFF745FF38BD284604F11B0200F089
:1042280091FB00280BDA237A052B04D128460121BB
:10423800FFF79AFF38BD2846FFF732FF38BD227ACC
:10424800531EDBB2012B11D9062A0FD0032A0DD039
:10425800B4F854202AB1284604F15601FFF73CFF70
:1042680038BD1AB928460021FFF77EFF38BD00BFC8
:104278005553424310B50446D0F81822137A012B3F
:1042880006D013B1062B0ED102E0FFF7A1FF10BD37
:104298002046517E1B3200F055FB002803DA2046E9
:1042A8000121FFF761FF10BD10B5D0F81842637AFD
:1042B800022B05D18121FFF759F90023637210BD44
:1042C80011F0800F04D0012B02D00121FFF74CFF21
:1042D80010BD00BF10B4D0F81842537813F0010F86
:1042E8000DD1D0F81C32586A01EBC101890008448D
:1042F8000179053113798B4203D90B4601E0072375
:104308000748A4F8543005E0013B9BB2C15CE218B1
:1043180082F85610002BF7D100205DF8044B704747
:1043280080570008D0F818020823A0F8543006E097
:10433800013B9BB2044AD15CC21882F85610002B8C
:10434800F6D10020704700BF90570008D0F8180237
:104358000823A0F8543006E0013B9BB2044AD15C24
:10436800C21882F85610002BF6D10020704700BF03
:104378008857000810B4D0F81842002305E0E11867
:10438800002081F856000133DBB2112BF7D97023D6
:1043980084F856300C2384F85D3094F8783494F817
:1043A80079148B4216D003F18B0114F8310084F88C
:1043B800580004EBC101487984F86200097984F84F
:1043C80063100133DBB284F87834042B02D1002364
:1043D80084F878341223A4F854301379122B01D8B6
:1043E800A4F8543000205DF8044B7047D0F8183218
:1043F8000020A3F85400704710B4D0F8180290F8C1
:10440800791401F18B0400F834201B0200EBC4047A
:1044180063600131C9B280F87914042902D10023FC
:1044280080F879345DF8044B704700BF70B50446D6
:10443800D0F818526B6933B1697E05222023FFF743
:10444800DBFFFF2314E00E46D0F81C329B680846B9
:104458009847034648B12046314602223A23FFF7DF
:10446800CBFF05232B72FF2302E00022A5F854207E
:1044780058B270BD70B582B005460E46D0F81842E5
:10448800002305E0E218002182F8561001339BB2A0
:104498000B2BF7D9D5F81C325B68304669460DF10D
:1044A80006029847014638B12846314602223A2387
:1044B800FFF7A2FFFF2122E0082384F85930009A71
:1044C800531E180E84F85A00C3F3074084F85B00A3
:1044D800C3F3072384F85C30013A84F85D20022393
:1044E80084F85E30BDF80630002284F85F201A0A8E
:1044F80084F8602084F861300C23A4F8543048B262
:1045080002B070BD70B505460E46D0F81842D0F816
:104518001C325B68084604F27C4104F27A429847F0
:1045280038B12846314602223A23FFF765FFFF21BA
:1045380020E00146D4F87C24531E180E84F8560057
:10454800C3F3074084F85700C3F3072384F85830AF
:10455800013A84F85920B4F87A34002284F85A20B1
:1045680084F85B201A0A84F85C2084F85D300823FC
:10457800A4F8543048B270BD10B5D0F818421344AE
:10458800D4F87C44A34205D905222123FFF734FF40
:10459800FF2000E0002040B210BD00BFF0B583B09E
:1045A80005460E46D0F81842D4F88434B3F5007F97
:1045B80028BF4FF40073D0F81C22176994F85614DA
:1045C800D4F880E4B4F87A24B3FBF2F304EB412185
:1045D800009030465631BEFBF2F29BB2B847002835
:1045E80007DA2846314604221123FFF705FFFF208A
:1045F80002E002232372002040B203B0F0BD00BFE6
:10460800F8B505460F461646D0F81842D0F81C32C1
:10461800DB699847237A002B58D194F91830002B7E
:1046280007DB2846617E05222023FFF7E5FEFF20F1
:104638004FE0D5F81C329B683846984738B1284671
:10464800394602223A23FFF7D7FEFF2041E0B2782D
:10465800F3781B0443EA0263327943EA022372794E
:104668001A43C4F88024F379317A41EA0323C4F861
:10467800843428463946FFF77FFF002828DB0223C9
:104688002372B4F87A14D4F8802401FB02F2C4F837
:104698008024D4F8843403FB01F3C4F884346269B9
:1046A800934207D02846617E05222023FFF7A4FE07
:1046B800FF200EE0002384F856344FF40073A4F86A
:1046C800543028463946FFF769FF02E0002000E031
:1046D800FF2040B2F8BD00BF2DE9F04383B080460B
:1046E8008946D0F81842D4F884341F46B3F5007FC1
:1046F80028BF4FF4007794F8565405EB4506B600EA
:1047080026443C36BB4207D105EB45039B002344B6
:104718004FF0FF32DA6316E007F50072934206D1D4
:1047280005EB45039B0023440022DA630BE0A3F565
:104738008063B3F5007F28BF4FF4007305EB450293
:1047480092002244D36304EB452256326B002B447B
:104758009B0023441A64C3F84480237A062B03D0B1
:10476800D8F81C32DB699847D8F81C32D3F814C043
:10477800D4F880E4B4F87A24B7FBF2F305EB4505E6
:10478800AD002544296C00964846BEFBF2F29BB268
:10479800E047002807DA4046494604220323FFF78A
:1047A8002BFEFF2029E094F8562482F0010284F8B9
:1047B8005624D4F880343B44C4F88034D4F8843484
:1047C800DB1BC4F88434616BCF1B6763217A06292D
:1047D80010D18BB101212172B3F5007F28BF4FF4AE
:1047E800007304EB4222404656329BB2FEF712FF9A
:1047F800002002E0002000E0002040B203B0BDE845
:10480800F08300BF2DE9F04105460F46D0F8184265
:10481800237A002B6FD1164694F91830002B07DA4B
:10482800617E05222023FFF7E7FD4FF0FF0868E0CF
:10483800D0F81C329B680846984740B1284639464C
:1048480002223A23FFF7D8FD4FF0FF0859E0D5F8C8
:104858001C32DB6838469847804640B128463946BE
:1048680002222723FFF7C8FD4FF0FF0849E0B2787E
:10487800F3781B0443EA0263327943EA022372792C
:104888001A43C4F88024F379317A41EA0323C4F83F
:10489800843428463946FFF76FFE00282FDBB4F82A
:1048A8007A14D4F8802401FB02F2C4F88024D4F8E6
:1048B800843403FB01F3C4F884346269934208D05A
:1048C8002846617E05222023FFF796FD4FF0FF085A
:1048D80017E006222272002284F85624B3F5007FDE
:1048E80028BF4FF400732846012104F156029BB2F9
:1048F800FEF790FE05E0FFF7EFFE804601E04FF07F
:10490800FF084FFA88F0BDE8F08100BF10B5D0F875
:104918001842537813F0020F05D005222423FFF71D
:104928006BFDFF200CE0D4F88024B4F88434FFF742
:1049380023FE002803DB0020A4F8540000E0FF2039
:1049480040B210BD08B513785A2B53D8DFE803F0EE
:104958002E52523152525252525252525252525274
:10496800525234525252525252523D3752523A5285
:10497800525252435246525249524C525252524F3C
:1049880052525252525252525252525252525252FF
:1049980052525252525252525252525252525252EF
:1049A800525252525252525252524000FFF73EFD5A
:1049B80025E0FFF7DFFC22E0FFF78CFC1FE0FFF7A4
:1049C80015FD1CE0FFF712FD19E0FFF7ABFC16E040
:1049D800FFF7BCFC13E0FFF74DFD10E0FFF792FD79
:1049E8000DE0FFF70DFE0AE0FFF70CFF07E0FFF709
:1049F8008DFF04E005222023FFF7FEFCFF2040B2D4
:104A080008BD00BF10B50446012102224023FEF76D
:104A18007BFD2046812102224023FEF775FD044BD1
:104A2800C4F818322046FFF76DFB002010BD00BF08
:104A38004417002010B504460121FEF777FD2046F3
:104A48008121FEF773FD2046FFF788FBD4F8183262
:104A580013B10023C4F81832002010BDF8B506467B
:104A68000C46D0F818720B7813F0600536D0202D5C
:104A780061D14A78FE2A02D0FF2A1AD02AE04A8851
:104A88008AB9CA88012A0ED113F0800F0BD0D0F84A
:104A98001C329B6998473860304639460122FFF737
:104AA800C5F9002548E030462146FEF777FF022584
:104AB80042E04A8842B9CA8832B913F0800F03D15C
:104AC800FFF740FB002537E030462146FEF766FF3A
:104AD800022531E0FEF762FF02252DE04B780A2B14
:104AE80004D00B2B07D0012B26D107E0391D01225A
:104AF800FFF79CF920E08B787B601DE00979FEF7D1
:104B080025FD30462179FEF711FD94F90430002B7C
:104B180006DA3046812102224023FEF7F5FC05E043
:104B28003046012102224023FEF7EEFC304621796F
:104B3800FFF7BAFB00E000252846F8BD08B5FFF7E7
:104B48002DFB002008BD00BF08B5FFF793FB002030
:104B580008BD00BF622303800048704798570008CB
:104B68000A230380004870477400002008B5012913
:104B780002D1FFF7E9FF08BDFFF73EFA08BD00BF05
:104B880008B5012902D1FFF7D9FF08BDFFF798F949
:104B980008BD00BF08B5FFF79DF908BD08B50B783B
:104BA80003F00303012B01D18A8832B1022B07D10C
:104BB8008B8803F07F03012B02D1FFF74FFF08BD5D
:104BC800FFF7E0F908BD00BF38B505460C46FFF70A
:104BD80031FF28462146FFF7BBF9002038BD00BF4A
:104BE80038B505460C46FFF70DFF28B9284621467B
:104BF800FFF784F908B938BD38BD38BD014B1868CE
:104C0800704700BFE000002010B5431E0A449142DF
:104C180004D011F8014B03F8014FF8E710BD30B587
:104C2800141E9BB0054604DA8B2303604FF0FF3057
:104C38001CE04FF40272ADF80C200CBF224604F1C0
:104C4800FF32029205924FF6FF7200910491ADF87F
:104C58000E2069461A461E9B00F074F8431CBCBF20
:104C68008B232B6014B1009B00221A701BB030BD3F
:104C780073B506460D4614460093044B3146186832
:104C88002A462346FFF7CBFF02B070BDE0000020A4
:104C98002DE9F0478E688246B3420C469046994605
:104CA80040D38A8912F4906F3AD0256809690223A3
:104CB8006F1A656905EB450595FBF3F57B1C4B44BD
:104CC8009D4238BF1D4653050FD5294600F030FBDD
:104CD800064698B121693A46FFF796FFA38923F45F
:104CE800906343F08003A38113E02A4600F076FB2B
:104CF800064670B95046216900F0D6FA0C23CAF866
:104D08000030A3894FF0FF3043F04003A381BDE892
:104D1800F08726613E4426604E466561ED1BA5601E
:104D2800B14500D24E4632462068414600F0A0FA0E
:104D3800A36800209B1BA36023681E442660BDE86F
:104D4800F08700002DE9F0439DB003938B89064658
:104D58001C060D4690460CD50B6953B9402100F04E
:104D6800E7FA2860286110B90C233360CCE04023AF
:104D78006B610023099320238DF8293030238DF8A7
:104D88002A3043461C4613F8012B1AB9B4EB08091C
:104D98000FD002E0252AF5D1F8E7304629464246E9
:104DA8004B46FFF775FF013000F0A980099B4B4483
:104DB80009932378002B00F0A28000234FF0FF32E4
:104DC80004930793059206938DF853301A9304F1D0
:104DD80001084446DFF8489121784846052200F04A
:104DE80039FA08F10108049B30B1C9EB000001222F
:104DF800824013430493ECE7D80644BF20228DF881
:104E08005320190744BF2B228DF8532022782A2AD1
:104E180002D0079923460EE0039A0134111D126847
:104E28000391002ABBBF524243F002030792079244
:104E3800B8BF04930AE01C4622780133303A092AA5
:104E480003D80A2000FB0121F5E7079123782E2BD0
:104E58001AD163782A2B0AD1039B02341A1D1B68C6
:104E68000392002BB8BF4FF0FF3305930CE0611C91
:104E780000220C4623780131303B092B03D80A2045
:104E880000FB0232F5E70592DFF89880217840466A
:104E9800032200F0DFF938B1049AC8EB0000402380
:104EA800834013430493013421781A48062204F1FD
:104EB80001088DF8281000F0CDF988B1164B33B9E8
:104EC800039B073323F007030833039313E003AB73
:104ED8000093304604A92A46104BAFF3008007E040
:104EE80003AB0093304604A92A460C4B00F092F815
:104EF800421C074603D0099B3B44099341E7AB8911
:104F08005B0601D4099801E04FF0FF301DB0BDE801
:104F1800F08300BF0658000800000000994C000804
:104F2800FC570008025800082DE9F84391461F462F
:104F38008A680B6906469342B8BF1346C9F8003021
:104F480091F843200C46DDF8208012B10133C9F8EE
:104F580000302368990642BFD9F800300233C9F8F7
:104F68000030256815F006051CD094F843302268F7
:104F7800003318BF012392061FD5E118302081F8AD
:104F880043005A1C94F845102244023382F8431017
:104F980013E03046394604F119020123C0470130B5
:104FA80007D00135E368D9F800209B1A9D42F0DB51
:104FB800DBE74FF0FF30BDE8F8833046394604F1AF
:104FC8004302C0470130F4D02268D9F80050E368A2
:104FD80002F00602042A08BF5D1B2269A3680CBF01
:104FE80025EAE57500259342C4BF9B1AED184FF0DA
:104FF8000009A9450ADA3046394604F11A020123A4
:10500800C0470130D5D009F10109F2E70020BDE819
:10501800F88300002DE9FF410C461746227E98468A
:105028006E2A06460A9B01F1430100F0B08012D8AF
:10503800632A23D00AD8002A00F0BD80582A40F0FD
:10504800CC8084F84520DFF804E257E0642A1ED0BB
:10505800692A1CD0C1E0732A00F0B18009D86F2AF0
:105068002ED0702A40F0B980226842F020022260D7
:105078003FE0752A24D0782A3BD0AEE01A6804F1C4
:105088004205111D1960136884F84230A9E02068B0
:105098001A6810F0800F02D0101D186008E010F098
:1050A800400F02F10400186002D0B2F9003000E0AD
:1050B8001368002B3EDA2D225B4284F8432039E046
:1050C80020681A6810F0800F02D0101D186007E0E1
:1050D80010F0400F02F10400186001D0138800E0BE
:1050E8001368227EDFF864E16F2A0CBF08220A22C7
:1050F8001CE07822DFF858E184F845202268186817
:1051080012F0800F00F104051D6003D1550601D58A
:10511800038800E00368D00744BF42F02002226001
:105128001BB9226822F0200222601022002084F895
:10513800430002E0DFF814E10A226568002DA8BFE9
:105148002068A560A4BF20F00400206003B965B101
:105158000D46B3FBF2F002FB10331EF8033005F8DE
:10516800013D03460028F4D100E00D46082A0BD182
:105178002368DA0708D5236962689A42DEBF3023BC
:1051880005F8013C05F1FF35491B21612EE0256832
:105198001A6815F0800F606903D0151D1D6013682B
:1051A80008E015F0400F02F104051D60136801D0F6
:1051B800188000E01860002323610D4616E01A6885
:1051C800111D1960156800212846626800F042F830
:1051D80008B1401B6060636804E004F1420584F88C
:1051E800422001232361002384F84330CDF8008056
:1051F8003046214603AA3B46FFF796FE013002D10E
:105208004FF0FF301FE0304639462A462369C04731
:105218000130F5D023689B0705D4E068039B9842CA
:10522800B8BF18460FE00025E368039A9B1A9D4211
:10523800F3DA3046394604F119020123C047013038
:10524800DED00135F0E704B0BDE8F0810D58000864
:105258001E58000810B5C9B202449042034605D052
:105268001C7801308C42F8D1184610BD002010BDC2
:10527800814210B501EB020301D3421E0BE09842B4
:10528800FBD28118D21AD34204D013F8014D01F889
:10529800014DF8E710BD994204D011F8014B02F80E
:1052A800014FF8E710BD000030B500293CD051F897
:1052B800042C0B1F1D49002AB8BF9B180A680C460E
:1052C80012B95A600B6030BD93420DD21968581854
:1052D800904201BF5A5852181A60426823605A60B7
:1052E80030BD994203D80A4651680029F9D114689B
:1052F80015199D420AD11B682344D01888421360AF
:1053080012D10868034413604B680CE002D90C23DF
:10531800036030BD1C681819884201BF08684968D5
:10532800001918605960536030BD00BF7C0100202F
:1053380070B5CC1C24F0030408340C2C38BF0C24A2
:10534800002C064603DA0C233360002070BD8C4223
:10535800F9D3204A136810461946A1B10A68121BEE
:105368000ED40B2A03D90A608B188C501FE08B428D
:105378000BBF5A684A6802605A6018BF0B4616E0AD
:105388000B464968E9E7144D2B681BB9304600F015
:105398004BF828603046214600F046F8421C034688
:1053A800D1D0C51C25F0030585420AD11C6003F144
:1053B8000B001A1D20F00700821A0AD0514299509A
:1053C80070BD3046E91A00F02FF80130BBD02B46EB
:1053D800ECE770BD7C01002078010020F8B5074695
:1053E80015460E4621B91146BDE8F840FFF7A0BFA3
:1053F8001AB9FFF759FF2846F8BD00F025F8A8426A
:105408000ED238462946FFF793FF044650B131467D
:105418002A46FFF7F9FB38463146FFF745FF01E01A
:105428003046F8BD2046F8BD38B5064C0023054681
:1054380008462360FDF764FC431C02D1236803B1CE
:105448002B6038BD8401002051F8040C0028BEBF31
:10545800091851F8043CC018043870472E2E2F73D1
:10546800797374656D2F7372632F73746D3332663D
:105478003178782F73746D3332663178785F68616C
:105488006C5F636F727465782E6300002E2E2F7325
:10549800797374656D2F7372632F73746D3332660D
:1054A8003178782F73746D3332663178785F68613C
:1054B8006C5F6770696F2E63000000002E2E2F73DB
:1054C800797374656D2F7372632F73746D333266DD
:1054D8003178782F73746D3332663178785F68610C
:1054E8006C5F7063642E63000203040506070809F5
:1054F8000A0B0C0D0E0F1010010200002E2E2F7338
:10550800797374656D2F7372632F73746D3332669C
:105518003178782F73746D3332663178785F6861CB
:105528006C5F7263632E63002E2E2F73797374651C
:105538006D2F7372632F73746D3332663178782FE1
:1055480073746D3332663178785F68616C5F72634B
:10555800635F65782E6300002E2E2F737973746550
:105568006D2F7372632F73746D3332663178782FB1
:1055780073746D3332663178785F68616C5F75611A
:1055880072742E6300000000537461636B206672AE
:10559800616D653A0A000000205230203D20202528
:1055A8003038580A00000000205231203D202025C4
:1055B8003038580A00000000205232203D202025B3
:1055C8003038580A00000000205233203D202025A2
:1055D8003038580A0000000020523132203D202582
:1055E8003038580A00000000204C52203D20202569
:1055F8003038580A00000000205043203D20202564
:105608003038580A0000000020505352203D202511
:105618003038580A000000004653522F4641523A8B
:105628000A0000002043465352203D2020253038F0
:10563800580A00002048465352203D202025303883
:10564800580A00002044465352203D202025303877
:10565800580A00002041465352203D20202530386A
:10566800580A0000204D4D464152203D2025303833
:10567800580A00002042464152203D20202530385B
:10568800580A00004D6973630A000000204C522F2D
:105698004558435F52455455524E3D2025303858A1
:1056A8000A0000005B486172644661756C745D0AAB
:1056B800000000005B4275734661756C745D0A00FA
:1056C8005B55736167654661756C745D0A0000001F
:1056D800000000000000000001020304060708099A
:1056E80000000000010203042E2E2F7372632F6D39
:1056F80061696E2E630000002E2E2F7372632F7562
:105708007362645F636F6E662E63000004030904AE
:1057180012010002EF020140830441570002010216
:1057280003010000436F6D706F73697465204D53FA
:10573800432043444300000053544D6963726F652E
:105748006C656374726F6E6963730000303030305B
:1057580030303030303535350000000056435020A9
:10576800436F6E666967000056435020496E746542
:10577800726661636500000000000003008083001A
:10578800000600000000000000000000000000000B
:1057980009026200030102C032090400000208067F
:1057A800500507058102400000070501024000007E
:1057B800080B0102020201000904010001020201B2
:1057C8000105240010010524010002042402020539
:1057D80024060102070582030800100904020002DA
:1057E8000A00000007050102400000070581024089
:1057F80000004300232D302B2000686C4C006566A8
:105808006745464700303132333435363738394109
:10581800424344454600303132333435363738391F
:075828006162636465660024
:10583000785634121000000001000000F000002033
:105840000000000000A24A04FD320008F532000802
:10585000F9320008613300084D3600085936000857
:1058600081360008653600089D360008B936000804
:10587000D5360008E94B0008D14B0008A54B0008BD
:10588000000000009D4B0008894B0008754B000884
:105890000000000000000000000000005D4B000858
:1058A000694B00080A0600020000004001000000E9
:1058B00000000000000000000000000000000000E8
:1058C00000000000000000000000000000000000D8
:1058D000FA5700080000000000000000000000006F
:1058E00000000000000000000000000000000000B8
:1058F00000000000000000000000000000000000A8
:105900000000000000000000000000000000000097
:0859100080000020325476985B
:040000050800010DE1
:00000001FF
