:020000040800F2
:10000000005000202102000821320008253200089B
:10001000293200082D3200083132000800000000AB
:100020000000000000000000000000003532000861
:1000300039320008000000003D320008413200085B
:10004000ED2E0008ED2E0008ED2E0008ED2E000824
:10005000ED2E0008ED2E0008ED2E0008ED2E000814
:10006000ED2E0008ED2E0008ED2E0008ED2E000804
:10007000ED2E0008ED2E0008ED2E0008ED2E0008F4
:10008000ED2E0008ED2E0008ED2E0008ED2E0008E4
:100090004D320008ED2E0008ED2E0008ED2E000870
:1000A000ED2E0008ED2E0008ED2E0008ED2E0008C4
:1000B000ED2E0008ED2E0008ED2E0008ED2E0008B4
:1000C000ED2E0008ED2E0008ED2E0008ED2E0008A4
:1000D000ED2E00085D320008ED2E0008ED2E000820
:1000E000ED2E0008ED2E0008ED2E000800000000A7
:1000F0000000000000000000000000000000000000
:1001000000000000000000005FF808F100B583B0B7
:1001100002F054FE304B314A1360314A1360314BC8
:10012000314A03E011681960043304322F498B42CD
:10013000F8D32A4B1A682E4B9A4204D1284B1A68DE
:100140002C4B9A4200D0FEE7234B2B4A13602B4ADC
:1001500013602B4B02E000221A600433294A9342B9
:10016000F9D3254B1B6813B9244B1B6803B1FEE779
:1001700002F030FE01A8694602F0C8FD224C234B74
:100180001C1BA410002504E01F4B53F82530984792
:100190000135AC42F8DC1E4C1E4B1C1BA410002584
:1001A00004E01B4B53F8253098470135AC42F8DC8E
:1001B0000198009902F0A0FF0546174C174B1C1B35
:1001C000A41004E0013C144B53F824309847002C51
:1001D000F8DC284602F076FDBABADECA000000203C
:1001E000C0000020000000209C4C0008C40000203B
:1001F0007856341232547698C4000020F816002045
:10020000C4000020FC1600207803000878030008D2
:1002100078030008780300087803000878030008D2
:1002200008B5FFF773FF00BF00BEFEE71EF0040F26
:100230000CBFEFF30880EFF309807146414A104785
:100240002DE9F04182B004468846134B5E6B9D6BEE
:100250009F6A1B6B13F0020F0DD00F4BDB6A002B54
:1002600009DA4BF6AB6102F031FE20B14FF00042EB
:10027000094BDA620CE0094802F050FDCDF800802D
:100280002046394632462B4602F0A8FD00BEFEE766
:1002900002B0BDE8F08100BF00ED00E0284B00088F
:1002A00000BEFEE71EF0040F0CBFEFF30880EFF373
:1002B00009807146244A10472DE9F04182B0074673
:1002C0008846084B5D6B9C6B9E6A074802F026FDD2
:1002D000CDF80080384631462A46234602F07EFD9E
:1002E00000BEFEE700ED00E0384B00081EF0040FF2
:1002F0000CBFEFF30880EFF309807146134A1047F3
:100300002DE9F04182B007468846084B5D6B9C6B37
:100310009E6A074802F002FDCDF80080384631465B
:100320002A46234602F05AFD00BEFEE700ED00E03B
:10033000444B000800BEFEE700BEFEE700BEFEE73D
:100340007047000041020008B902000801030008DC
:100350009C4C000800000020C40000209C4C0008B9
:100360000000000000000000C4000020FC16002077
:08037000000000000000000085
:1003780010B504460E4B18784FF47A73B3FBF0F3BC
:100388000C4A1068B0FBF3F000F0B0F858B90F2C25
:100398000BD84FF0FF302146002200F051F8064BF1
:1003A8001C60002010BD012010BD012010BD00BF41
:1003B80008000020140000200400002008B5074AA7
:1003C800136843F010031360032000F01BF80020AB
:1003D800FFF7CEFF02F0A2FE002008BD0020024079
:1003E800034A1368034909780B441360704700BF38
:1003F8005C01002008000020014B1868704700BF0E
:100408005C01002010B50446C31E042B03D90A481A
:10041800A22102F081FE04F00700084AD36823F401
:10042800E0631B041B0C43EA002040F0BF6040F46B
:100438000030D06010BD00BFE048000800ED00E0CB
:1004480070B504460E4615460F2A03D91A48BA2134
:1004580002F062FE0F2E03D91748BB2102F05CFEA2
:10046800164BDB68C3F30223C3F10702042A28BF33
:100478000422191D062901D9D81E00E000200123F5
:1004880003FA02F2013A324002FA00F183405A1E9E
:100498002A400A43002C06DA04F00F041201D2B2F3
:1004A800074B1A5570BD1201D2B204F1604404F52D
:1004B800614484F8002370BDE048000800ED00E0C6
:1004C80014ED00E010B5041E03DA0648CE2102F050
:1004D80023FE610904F01F040123A340024A42F8E5
:1004E800213010BDE048000800E100E00138B0F11B
:1004F800807F0AD2064B5860F021064A82F8231002
:100508000020986007221A6070470120704700BFDA
:1005180010E000E000ED00E010B50446042805D026
:1005280020B1094840F2D91102F0F6FD042C05D19A
:10053800064A136843F00403136010BD034A1368A6
:1005480023F00403136010BDE048000810E000E049
:10055800704700BF08B5FFF7FBFF08BD08B590F866
:100568002130022B03D004238363012008BD0268D5
:10057800136823F00E0313600268136823F0010365
:1005880013600368194A93421FD0143293421AD059
:100598001432934214D0143293420ED01432934240
:1005A80008D01432934202D14FF480120EE04FF07B
:1005B80080720BE04FF4803208E04FF4805205E07F
:1005C8004FF4807202E0102200E00122084B5A60CA
:1005D800012380F82130002380F82030436B13B1C9
:1005E8009847002008BD002008BD00BF0800024051
:1005F800000002402DE9F04383B080460F46AF4B20
:10060800984213D003F5806398420FD003F58063B6
:1006180098420BD003F58063984207D003F58063B6
:10062800984203D0A648CD2102F076FD3B689AB2E5
:1006380012B11B0C1B041BB1A148CE2102F06CFDAA
:100648007B68012B22D9112B20D0022B1ED0122B14
:100658001CD09C4A934219D002F58012934215D0BF
:1006680002F58012934211D0A2F5F81293420DD0F0
:1006780002F58012934209D002F58012934205D008
:10068800032B03D08E48CF2102F046FD4FF000091E
:100698004E4629E10125B5403C682C40AC4240F06B
:1006A8002281864B984513D003F5806398450FD077
:1006B80003F5806398450BD003F58063984507D010
:1006C80003F58063984503D07D48DD2102F024FDC1
:1006D8007B68122B49D00CD8022B3AD004D8002BB7
:1006E8004FD0012B1ED067E0032B60D0112B24D0F4
:1006F80062E0754A934244D008D8A2F5801293422A
:100708003FD002F58032934256D13AE06F4A934285
:1007180037D002F58032934233D0A2F5801293424B
:100728004AD12EE0FB68013B022B03D96448E5213E
:1007380002F0F2FCD7F80C903EE0FB68013B022B7C
:1007480003D95F48EC2102F0E7FCFB6803F10409D8
:1007580032E0FB68013B022B03D95948F32102F030
:10076800DBFCFB6803F1080926E0FB68013B022B70
:1007780003D95348FA2102F0CFFCFB6803F10C09B6
:100788001AE0BB68022B04D94D4840F2071102F069
:10079800C3FCBB6873B1012B04D1C8F810504FF0EB
:1007A800080909E0C8F814504FF0080904E04FF0B0
:1007B800000901E04FF00409FF2C01D8454601E08B
:1007C80008F10405FF2C01D8B00002E0A6F10800EA
:1007D800800029680F23834021EA030209FA00F305
:1007E80013432B607B6813F0805F7CD0384B9A6989
:1007F80042F001029A619B6903F001030193019B96
:10080800B008821C334B53F8221006F00305AD00E4
:100818000F23AB4021EA0302284B984513D003F578
:10082800806398450DD003F58063984507D003F59C
:100838008063984501D1032306E0042304E00223E2
:1008480002E0012300E00023AB4013430230214AB9
:1008580042F820307B6813F4803F05D002F58062AF
:1008680013682343136004E01B4A136823EA040354
:1008780013607B6813F4003F04D0174A536823437E
:10088800536004E0144A536823EA040353607B6806
:1008980013F4801F04D0104A93682343936004E044
:1008A8000D4A936823EA040393607B6813F4001FDE
:1008B80014D0094AD3681C43D46014E000080140EE
:1008C800104900080000111000002110000031102C
:1008D800001002400000014000040140054AD368AE
:1008E80023EA0404D46001360F2E7FF6D3AE03B09A
:1008F800BDE8F08300040140002870D0F0B587B04F
:1009080004460268384B9A4203D038489F2102F0C7
:1009180003FC94F8293413F0FF0F05D1002384F861
:100928002834204602F012FD032384F82934206875
:1009380001F0F0FC254655F8107B6E460FCD0FC62A
:100948002B683360231D0ECB384601F0D1FC20689C
:10095800002101F0E9FC002310E004EB431201211F
:1009680082F8291082F828309386002182F82B100B
:100978009163D1639A1C5201A15001330E2BECD91B
:10098800002312E004EB4311002281F8292281F8A8
:1009980028328B8681F82B22C1F83822C1F83C22F4
:1009A80003F112014901625001330E2BEAD92546A1
:1009B80055F8107B6E460FCD0FC62B683360231D8C
:1009C8000ECB384601F0B2FC002584F824500123F0
:1009D80084F82934206801F0D3FF284601E001207B
:1009E800704707B0F0BD00BF005C004040490008F8
:1009F80090F82834012B10D010B50446012180F856
:100A0800281402F0EDFD206801F0B8FF206801F01D
:100A180077FC002084F8280410BD0220704700BF2E
:100A280010B5044690F82834012B0BD0012380F828
:100A3800283480F82410006801F09AFF002084F818
:100A4800280410BD022010BD38B50546C8B210F004
:100A5800800F05D001F07F0405EB4414283405E02D
:100A680001F07F0405EB441404F50A7401F07F01DA
:100A78002170C00960702261E37095F82834012B59
:100A88000AD0012385F828342868214601F064FC3F
:100A9800002085F8280438BD022038BD10B504466A
:100AA800CAB212F0800F05D001F07F0300EB4313A8
:100AB800283305E001F07F0300EB431303F50A73C5
:100AC80001F07F011970D2095A7094F82824012A7C
:100AD8000AD0012284F828242068194601F0DAFD9A
:100AE800002084F8280410BD022010BD70B501F064
:100AF8007F056C0104F50A7101440444C4F83C22E2
:100B080005F112025201861883500023736084F89D
:100B1800293284F828521DB9006801F04FFF02E01D
:100B2800006801F04BFF002070BD00BF01F00F010D
:100B380000EB4110B0F84402704700BF70B501F0F7
:100B48007F056C0104F1280101440444E263AA1CF6
:100B580052018618835000237360012384F82930DA
:100B680084F828501DB9006801F028FF02E00068E9
:100B780001F024FF002070BD70B582B00446002348
:100B8800ADF80630ADF8043008E2BDF8065015F0AF
:100B98000F0540F0C580BDF8063003F010039BB286
:100BA80093BB03889BB223F4E14323F070039BB209
:100BB80003802168B1F850309AB294F8283002EBDB
:100BC800C30301EB4303D3F80434C3F30903636499
:100BD800E26B1344E3632046002102F0EBFB94F838
:100BE800243013F0FF0F00F0D981236C002B40F064
:100BF800D581226894F8243043F08003A2F84C3061
:100C0800002384F82430C9E103889BB2ADF804308E
:100C1800BDF8043003F400639BB2FBB1B0F8503068
:100C28009BB294F8282203EBC20300EB4303D3F8EA
:100C38000C34C3F30903C4F8443204F22C41B4F869
:100C48002C2202F02BF82268138823F070031B056E
:100C58001B0D1380204602F099FB9FE1BDF804307C
:100C68001BB2002B80F29A81038823F070031B05C6
:100C78001B0D03802068B0F850309BB294F82822EE
:100C880003EBC20300EB4303D3F80C34C3F30903AB
:100C9800C4F8443263B1D4F83C12B4F82C2201F001
:100CA800FDFFD4F83C22D4F844321344C4F83C3253
:100CB8002046002102F074FB2268B2F850309BB243
:100CC800063302EB4303D4F838123E290ED9C1F398
:100CD8004F1211F01F0F01D1013A92B26FEAC262AE
:100CE8006FEA524292B2C3F800240AE0C1F34F02FD
:100CF80011F0010F01D0013292B2920292B2C3F800
:100D08000024226813889BB223F4804323F07003E5
:100D180083F4405343F4004343F0800313803DE1E0
:100D2800236833F825309BB2ADF80430BDF80430A1
:100D38001BB2002B80F2958030F8253023F0700329
:100D48001B051B0D20F8253004EB451393F83232B0
:100D5800DBB92068B0F850309BB204EB451292F82A
:100D6800282203EBC20300EB4303B3F80C64C6F379
:100D78000906002E50D004EB4513D3F83C12B3F803
:100D88002C22334601F08AFF46E0206804EB451325
:100D980093F8281230F8213003F480439BB2ABB1AA
:100DA800B0F8502092B202EBC10300EB4303B3F852
:100DB8000464C6F30906F6B104EB4513D3F83C12F4
:100DC800B3F82E22334601F069FF14E0B0F8503032
:100DD8009BB203EBC10300EB4303B3F80C64C6F307
:100DE800090646B104EB4513D3F83C12B3F8302298
:100DF800334601F053FF226804EB451393F8281299
:100E080032F8213023F0F0031B051B0D43F4004397
:100E180043F0C00322F8213005F112035B01E11809
:100E28004A6832444A6004EB4511D1F83C22324406
:100E3800C1F83C22E3582BB104EB4511D1F8381224
:100E48008E4207D204EB4513204693F8281202F08D
:100E5800A7FA06E004EB4511204691F82812FFF79F
:100E680045FEBDF8043003F080039BB2002B00F070
:100E78009580226832F825309BB223F4E14323F0B1
:100E880070039BB222F8253004EB451393F83230F7
:100E9800CBB92068B0F850309BB204EB451292F8F9
:100EA800282003EBC20300EB4303D3F80434C3F355
:100EB800090304EB45125364002B47D0D16B928D84
:100EC80001F066FD42E0206804EB451393F8281012
:100ED80030F8213003F040039BB29BB1B0F85020AA
:100EE80092B202EBC10300EB4303D3F80434C3F31B
:100EF800090304EB45125364BBB1D16BD28D01F0E9
:100F080047FD12E0B0F850309BB203EBC10300EB91
:100F18004303D3F80C34C3F3090304EB45125364B9
:100F28001BB1D16B128E01F033FD226804EB45131F
:100F380093F8281032F8213023F0F0031B051B0D1D
:100F480043F4404343F0800322F821302068B0F88E
:100F580050309AB204EB451191F8283002EBC303E4
:100F680000EB4303D3F80434C3F30903A81C40017E
:100F780022185360CA6B1A44CA6323583BB904EB5E
:100F88004515204695F8281002F014FA06E004EBFF
:100F98004515204695F82810FFF7D0FD2068B0F8D1
:100FA80044309BB2ADF8063013F4004F7FF4EDAD3A
:100FB800002002B070BD00BF10B50446006801F003
:100FC800E1FC10F4004F02D02046FFF7D5FD206861
:100FD80001F0D8FC10F4806F0FD02268B2F84430CA
:100FE80023F480631B041B0CA2F84430204602F053
:100FF800F1F920460021FFF713FD206801F0C2FC3B
:1010080010F4804F08D02268B2F8443023F48043AB
:101018001B041B0CA2F84430206801F0B3FC10F448
:10102800005F08D02268B2F8443023F400531B0450
:101038001B0CA2F84430206801F0A4FC10F4805F77
:101048001DD02268B2F8403023F004031B041B0CA7
:10105800A2F840302268B2F8403023F008031B049D
:101068001B0CA2F84030204602F0D0F92268B2F8F2
:10107800443023F480531B041B0CA2F8443020682E
:1010880001F080FC10F4006F21D02268B2F84030E3
:101098009BB243F00803A2F840302268B2F844300B
:1010A80023F400631B041B0CA2F844302268B2F836
:1010B80040309BB243F00403A2F84030206801F0AE
:1010C80061FC10F4805F02D1204602F08FF920689D
:1010D80001F058FC10F4007F0BD02268B2F84430BD
:1010E80023F400731B041B0CA2F84430204602F0C2
:1010F8006BF9206801F046FC10F4807F08D0226864
:10110800B2F8443023F480731B041B0CA2F844305B
:1011180010BD00BF38B50546CAB212F0800F05D021
:1011280001F07F0300EB4313283303E000EB411386
:1011380003F50A730120987001F07F041C70D2092E
:101148005A7095F8282482420FD085F82804286818
:10115800194601F089FB24B9286805F22C4101F0F1
:1011680015FC002085F8280438BD022038BD00BFD2
:1011780010B50446CAB212F0800F05D001F07F0303
:1011880000EB4313283303E000EB411303F50A7324
:101198000020987001F07F011970D2095A7094F8F4
:1011A8002824012A0AD0012284F828242068194614
:1011B80001F092FB002084F8280410BD022010BD25
:1011C80010B401F08004A4B22CB101F07F0100EB4F
:1011D8004110283003E000EB411000F50A7012B905
:1011E8008272838004E001228272C3801B0C038117
:1011F80000205DF8044B704782B0084B1B68084A12
:10120800A2FB03235B0A00FB03F0019000BF019BD4
:101218005A1E0192002BF9D102B070471400002029
:10122800D34D621070B582B0044620B9AA484FF475
:10123800B87101F071FF23683BB113F00F0F04D1AF
:10124800A54840F2711101F067FF236813F0010F00
:1012580078D0636853B1B3F5803F07D0B3F5A02FBA
:1012680004D09D4840F2771101F056FF9B4B5B6814
:1012780003F00C03042B0AD0984B5B6803F00C03B3
:10128800082B0DD1954B5B6813F4803F08D0934B26
:101298001B6813F4003F55D06368002B52D12CE231
:1012A8006368B3F5803F05D18C4A136843F48033F3
:1012B800136026E063B903F1804303F504331A6829
:1012C80022F480321A601A6822F480221A6018E028
:1012D800B3F5A02F0CD103F18043A3F53C331A6872
:1012E80042F480221A601A6842F480321A6008E0D8
:1012F8007A4B1A6822F480321A601A6822F4802223
:101308001A6063687BB1FFF777F8054605E0FFF7D9
:1013180073F8401B642800F2F281704B1B6813F4C9
:10132800003FF4D00EE0FFF767F8054605E0FFF749
:1013380063F8401B642800F2E481684B1B6813F4CF
:10134800003FF4D1236813F0020F60D02369012B0A
:1013580004D9614840F2AB1101F0DEFE63691F2B2E
:1013680004D95D484FF4D67101F0D6FE5B4B5B683B
:1013780013F00C0F0AD0594B5B6803F00C03082BD1
:1013880016D1564B5B6813F4803F11D1534B1B6841
:1013980013F0020F03D02369012B40F0B4814F4AA8
:1013A800136823F0F803616943EAC10313602EE070
:1013B8002369D3B101224A4B1A60FFF71DF805468D
:1013C80005E0FFF719F8401B022800F29E81434B05
:1013D8001B6813F0020FF4D0404A136823F0F80397
:1013E800616943EAC103136011E000223C4B1A60B3
:1013F800FFF702F8054605E0FEF7FEFF401B02284E
:1014080000F28581354B1B6813F0020FF4D1236875
:1014180013F0080F31D0A369012B04D92E484FF4DB
:10142800F67101F079FEA369ABB101222D4B1A6068
:10143800FEF7E2FF054605E0FEF7DEFF401B022847
:1014480000F26781254B5B6A13F0020FF4D001208C
:10145800FFF7D2FE11E00022224B1A60FEF7CCFF04
:10146800054605E0FEF7C8FF401B022800F253813D
:101478001A4B5B6A13F0020FF4D1236813F0040FC0
:1014880000F09680E368012B06D9052B04D012489A
:1014980040F21B2101F040FE104BDB6913F0805F26
:1014A8000BD10E4BDA6942F08052DA61DB6903F046
:1014B80080530193019B012500E000250A4B1B681E
:1014C80013F4807F1DD1084A136843F480731360B6
:1014D800FEF792FF06460FE0804900080010024020
:1014E800000042428004424200700040FEF784FF40
:1014F800801B642800F21181904B1B6813F4807FD5
:10150800F4D0E368012B05D18D4A136A43F0010337
:10151800136222E063B903F1804303F504331A6AC6
:1015280022F001021A621A6A22F004021A6214E016
:10153800052B09D1824B1A6A42F004021A621A6A10
:1015480042F001021A6208E07D4B1A6A22F0010299
:101558001A621A6A22F004021A62E3688BB1FEF773
:101568004BFF064607E0FEF747FF801B41F2883332
:10157800984200F2D480724B1B6A13F0020FF2D02B
:1015880010E0FEF739FF064607E0FEF735FF801B3F
:1015980041F28833984200F2C480694B1B6A13F009
:1015A800020FF2D125B1664AD36923F08053D36183
:1015B800E369022B04D9634840F2B92101F0ACFD7C
:1015C800E369002B00F0AF805D4A526802F00C021C
:1015D800082A00F0AA80022B7CD1236A3BB1B3F51C
:1015E800803F04D0574840F2C22101F095FD636A5C
:1015F80073B3B3F5802F2BD0B3F5002F28D0B3F5F4
:10160800402F25D0B3F5801F22D0B3F5A01F1FD0DF
:10161800B3F5C01F1CD0B3F5E01F19D0B3F5001FF8
:1016280016D0B3F5101F13D0B3F5201F10D0B3F5A3
:10163800301F0DD0B3F5401F0AD0B3F5501F07D0A7
:10164800B3F5601F04D03F4840F2C32101F064FDA8
:1016580000223D4B1A60FEF7CFFE054604E0FEF778
:10166800CBFE401B022862D8354B1B6813F0007F65
:10167800F5D1236AB3F5803F10D1A3683BB1B3F528
:10168800003F04D02F4840F2D92101F045FD2C49F4
:101698004B6823F40032A36813434B60284843681F
:1016A80023F47411236A626A13430B4343600122D3
:1016B800254B1A60FEF7A0FE044604E0FEF79CFEE8
:1016C800001B022835D81E4B1B6813F0007FF5D08D
:1016D800002031E000221C4B1A60FEF78DFE044604
:1016E80004E0FEF789FE001B022824D8144B1B686F
:1016F80013F0007FF5D100201EE001201CE003203C
:101708001AE0032018E0012016E0032014E003206B
:1017180012E0032010E003200EE003200CE0032079
:101728000AE0032008E0002006E0012004E003208E
:1017380002E0032000E0032002B070BD007000400A
:1017480000100240804900086000424230B486B070
:10175800164D02AC28686968AA68EB680FC42B8A22
:10176800ADF80430124B5B6803F00C02082A19D15B
:10177800C3F3834206A90A4412F8100C13F4803FFD
:101788000CD00B4B5B68C3F340430B4413F8142C89
:10179800084B03FB00F0B0FBF2F004E0064B03FB40
:1017A80000F000E0034806B030BC70476C49000800
:1017B8000010024000127A0000093D0070B50D4685
:1017C800044620B9894840F22E3101F0A5FC23686F
:1017D80013F00F0F04D1854840F22F3101F09CFC23
:1017E800022D04D981484FF44C7101F095FC804BCF
:1017F8001B6803F00703AB420BD27D4A136823F042
:1018080007032B431360136803F00703AB4240F050
:10181800DC80236813F0020F1DD0A368A3B1802BCE
:1018280012D0902B10D0A02B0ED0B02B0CD0C02BE8
:101838000AD0D02B08D0E02B06D0F02B04D06B4870
:1018480040F2493101F068FC6A494B6823F0F00224
:10185800A36813434B60236813F0010F57D06368E4
:10186800022B04D961484FF4547101F055FC6268A9
:10187800012A05D15F4B1B6813F4003F0ED1A6E087
:10188800022A05D15B4B1B6813F0007F06D1A0E04C
:10189800584B1B6813F0020F00F09D8055494B68A8
:1018A80023F0030313434B60FEF7A6FD0646636867
:1018B800012B0FD107E0FEF79FFD801B41F2883313
:1018C800984200F28A804B4B5B6803F00C03042BB0
:1018D800F1D11CE0022B15D106E0FEF78DFD801B2F
:1018E80041F2883398427AD8424B5B6803F00C0384
:1018F800082BF2D10BE0FEF77FFD801B41F2883305
:1019080098426ED83B4B5B6813F00C0FF3D1384B01
:101918001B6803F00703AB420AD9354A136823F062
:1019280007032B431360136803F00703AB425AD134
:10193800236813F0040F19D0E36883B1B3F5806FFF
:101948000DD0B3F5A06F0AD0B3F5C06F07D0B3F5CB
:10195800E06F04D025484FF4697101F0DDFB25499B
:101968004B6823F4E062E36813434B60236813F089
:10197800080F1AD0236983B1B3F5806F0DD0B3F582
:10198800A06F0AD0B3F5C06F07D0B3F5E06F04D0ED
:10199800164840F2AB3101F0BFFB164A536823F4F6
:1019A8006053216943EAC1035360FFF7CFFE114B2F
:1019B8005B68C3F30313104AD35CD8400F4B18601D
:1019C8000020FEF7D5FC002070BD012070BD01206D
:1019D80070BD012070BD012070BD032070BD0320C3
:1019E80070BD032070BD012070BD00BF8049000894
:1019F8000020024000100240544B00081400002050
:101A0800014B1868704700BF1400002008B5FFF7A5
:101A1800F7FF044B5B68C3F30223034AD35CD84047
:101A280008BD00BF00100240644B000808B5FFF76E
:101A3800E7FF044B5B68C3F3C223034AD35CD84077
:101A480008BD00BF00100240644B000870B582B0AA
:101A58000446036813F0130F03D156487C2101F0A4
:101A68005BFB236813F0010F6BD0636863B1B3F5B8
:101A7800807F09D0B3F5007F06D0B3F5407F03D04F
:101A88004C48822101F048FB4B4BDB6913F0805F27
:101A98000BD1494BDA6942F08052DA61DB6903F015
:101AA80080530193019B012600E00026434B1B68ED
:101AB80013F4807F12D1414A136843F48073136092
:101AC800FEF79AFC054604E0FEF796FC401B6428E6
:101AD80068D83A4B1B6813F4807FF5D0364B1B6AE5
:101AE80013F4407321D0626802F440729A421CD009
:101AF800314A136A23F44070314901250D600025ED
:101B08000D60106213F0010F0FD0FEF775FC05464B
:101B180006E0FEF771FC401B41F28833984243D837
:101B2800254B1B6A13F0020FF3D023490B6A23F4E9
:101B38004072636813430B621EB1CB6923F0805374
:101B4800CB61236813F0020F15D0A36863B1B3F516
:101B5800804F09D0B3F5004F06D0B3F5404F03D0FE
:101B68001448C92101F0D8FA13494B6823F44042BC
:101B7800A36813434B60236813F0100F16D0E36873
:101B8800B3F5800F05D023B10A4840F2251101F0C2
:101B9800C3FA09494B6823F48002E36813434B6096
:101BA800002004E0032002E0032000E0002002B04F
:101BB80070BD00BFAC490008001002400070004032
:101BC800400442420268D36823F49073D3600268E9
:101BD800536923F001035361202380F83A3070479A
:101BE80090F83930DBB2212B2AD18368B3F5805FB6
:101BF8000FD1036A02681B88C3F3080353600369A3
:101C08001BB9036A0233036209E0036A0133036202
:101C180005E00268036A591C01621B785360C38C93
:101C2800013B9BB2C3846BB90268D36823F080037D
:101C3800D3600268D36843F04003D3600020704744
:101C480002207047002070472DE9F843814642681A
:101C5800844B9A4204D9844840F6A71101F05CFAF3
:101C6800D9F80C303BB1B3F5005F04D07E4840F69C
:101C7800A81101F051FAD9F8103053B1B3F5806FBB
:101C880007D0B3F5C06F04D0774840F6A91101F02A
:101C980043FAD9F814304FF6F372134200D123B93E
:101CA800714840F6AA1101F037FAD9F800100B690B
:101CB80023F44052D9F80C3013430B61D9F80810BB
:101CC800D9F810301943D9F814301943D9F800005D
:101CD800C26822F4B05323F00C030B43C360D9F855
:101CE80000104B6923F44072D9F8183013434B6144
:101CF800D9F800505D4B9D4259D1FFF797FE00EB94
:101D0800800000EB8000D9F80440A400B0FBF4F494
:101D1800574EA6FB043464092401FFF787FE00EB45
:101D2800800000EB8000D9F804309B00B0FBF3F78B
:101D3800FFF77CFE00EB800000EB8000D9F8043050
:101D48009B00B0FBF3F3A6FB03235B094FF0640889
:101D580008FB13731B013233A6FB03235B0903F053
:101D6800F0031C44FFF762FE00EB800000EB8000EC
:101D7800D9F804309B00B0FBF3F7FFF757FE00EBF0
:101D8800800000EB8000D9F804309B00B0FBF3F32F
:101D9800A6FB03235B0908FB13731B013233A6FB65
:101DA8000323C3F343131C44AC60BDE8F883FFF777
:101DB8002DFE00EB800000EB8000D9F80440A40061
:101DC800B0FBF4F42A4EA6FB043464092401FFF79F
:101DD8001DFE00EB800000EB8000D9F804309B006A
:101DE800B0FBF3F7FFF712FE00EB800000EB80007A
:101DF800D9F804309B00B0FBF3F3A6FB03235B097F
:101E08004FF0640808FB13731B013233A6FB03234E
:101E18005B0903F0F0031C44FFF7F8FD00EB8000BA
:101E280000EB8000D9F804309B00B0FBF3F7FFF714
:101E3800EDFD00EB800000EB8000D9F804309B003A
:101E4800B0FBF3F3A6FB03235B0908FB13731B0129
:101E58003233A6FB0323C3F343131C44AC60BDE831
:101E6800F88300BF20AA4400DC490008003801407C
:101E78001F85EB512DE9F04106460C46174698465A
:101E8800069D1EE0B5F1FF3F1BD02DB1FEF7B4FA59
:101E9800C8EB0000A84214D93268D36823F4D07381
:101EA800D3603268536923F001035361202386F815
:101EB800393086F83A30002386F838300320BDE8F8
:101EC800F08133681B682340A34214BF0023012319
:101ED800BB42D7D00020BDE8F08100BF00286DD0FC
:101EE80010B5044683690BB30368354A93420CD096
:101EF800A2F57442934208D002F58062934204D05E
:101F0800304840F20F1101F007F9A369FBB1B3F5AE
:101F1800807F1CD0B3F5007F19D0B3F5407F16D071
:101F280028484FF4887101F0F7F810E00368244A54
:101F380093420CD0A2F57442934208D002F5806215
:101F4800934204D01F484FF48A7101F0E5F8A36862
:101F58003BB1B3F5805F04D01A484FF48B7101F0A0
:101F6800DBF894F8393013F0FF0F05D1002384F81B
:101F78003830204601F01AF9242384F839302268D1
:101F8800D36823F40053D3602046FFF75DFE226830
:101F9800136923F4904313612268536923F02A03D9
:101FA80053612268D36843F40053D3600020E06390
:101FB800202384F8393084F83A3010BD0120704766
:101FC80000380140DC4900082DE9F04182B00446A0
:101FD8001E4690F83930DBB2202B54D10D4690467E
:101FE800002952D0002A52D090F83830012B50D016
:101FF800012380F838300023C363212380F8393067
:10200800FEF7FAF90746A4F82480A4F8268026E00B
:10201800E38C013B9BB2E384A368B3F5805F12D1E4
:1020280000962046802100223B46FFF723FF90BB05
:1020380022682B88C3F30803536023690BB9023560
:102048000DE001350BE000962046802100223B463A
:10205800FFF710FF08BB23682A785A600135E38C24
:102068009BB2002BD4D100962046402100223B464B
:10207800FFF700FF034690B9202284F83920002298
:1020880084F838200CE002230AE0012308E0012349
:1020980006E0022304E0032302E0032300E0032315
:1020A800184602B0BDE8F08190F83A30DBB2202B38
:1020B80020D109B312B390F83830012B20D08162B7
:1020C8008285C2850023C363222280F83A2080F8E3
:1020D80038300168CA6842F48072CA6001684A6987
:1020E80042F001024A610168CA6842F02002CA60EF
:1020F800184670470220704701207047012070473A
:1021080002207047704700BF08B50168CB6823F00C
:102118004003CB60202380F83930FFF7F3FF00201D
:1021280008BD00BF08B590F83A30DBB2222B43D186
:102138008368B3F5805F13D1826A036943B9036882
:102148005B68C3F308031380836A0233836218E071
:1021580003685B68DBB21380836A0133836210E033
:10216800036933B9836A5A1C8262026852681A701A
:1021780007E0826A531C836203685B6803F07F038D
:102188001370C38D013B9BB2C385BBB90268D3688A
:1021980023F02003D3600268D36823F48073D360EC
:1021A8000268536923F001035361202380F83A3011
:1021B80000F022FF002008BD022008BD002008BD55
:1021C800704700BF10B5044602681368D1685269A9
:1021D80013F00F0009D113F0200F06D011F0200FD3
:1021E80003D02046FFF79EFF10BD002862D012F0F2
:1021F800010202D111F4907F5CD013F0010F06D0D8
:1022080011F4807F03D0E06B40F00100E06313F02D
:10221800040F04D01AB1E06B40F00200E06313F041
:10222800020F04D01AB1E06B40F00400E06313F031
:10223800080F04D01AB1E26B42F00802E263E26BC5
:10224800002A4AD013F0200F05D011F0200F02D039
:102258002046FFF767FF23685B6903F04003E26BE2
:1022680012F0080F00D1FBB12046FFF7ABFC236842
:102278005A6912F0400F13D05A6922F040025A618D
:10228800636B4BB1154A5A63606BFEF767F920B36D
:10229800606B436B984710BD2046FFF791FF10BD58
:1022A8002046FFF78DFF10BD2046FFF789FF00236A
:1022B800E36310BD13F0800F06D011F0800F03D038
:1022C8002046FFF78DFC10BD13F0400F05D011F02C
:1022D800400F02D02046FFF717FF10BDE922000883
:1022E80008B5406A0023C385C384FFF769FF08BDAA
:1022F80084B001A880E80E00002004B0704700BF39
:10230800B0F840309BB243F43F43A0F8403000207F
:10231800704700BFB0F8403023F474535B045B0C83
:10232800A0F84030002070470020704784B038B5CE
:1023380005AC84E80E000123A0F840300024A0F882
:102348004040A0F84440A0F85040FFF7D9FF20468D
:10235800BDE8384004B0704710B4CB78032B35D8AB
:10236800DFE803F002280F1B0A7830F822309BB20E
:1023780023F4EC4323F0700343F4007320F8223075
:1023880024E00A7830F822309BB223F4EC4323F09F
:1023980070039BB220F8223018E00A7830F8223017
:1023A8009BB223F4EC4323F0700343F4C06320F89A
:1023B80022300BE00A7830F822309BB223F4EC4349
:1023C80023F0700343F4806320F822300A7830F851
:1023D800223023F0F0031B051B0D134343F4004385
:1023E80043F0800320F822308B7A002B40F08A805B
:1023F8004B7883B3B0F850309BB20A7803EBC20332
:1024080000EB43038A8852085200C3F800240A7874
:1024180030F8223003F040039BB25BB130F8223031
:1024280023F0F0031B051B0D43F4004343F0C003E6
:1024380020F822300A7830F822309BB223F4E043A7
:1024480023F0400383F0200343F4004343F0800368
:1024580020F8223019E1B0F850309BB20A7803EB2B
:10246800C20300EB43038A8852085200C3F80824C9
:10247800B0F850309BB20A7803EBC203063300EB86
:1024880043030C693E2C0ED9C4F34F1214F01F0FEE
:1024980001D1013A92B26FEAC2626FEA524292B235
:1024A800C3F800240AE0C4F34F0214F0010F01D06E
:1024B800013292B2920292B2C3F800240A7830F83C
:1024C800223003F480439BB25BB130F8223023F012
:1024D800F0031B051B0D43F4404343F0800320F831
:1024E80022300A7830F822309BB223F4804323F05C
:1024F800700383F4405343F4004343F0800320F80F
:102508002230C2E00A7830F8223023F4F8731B0531
:102518001B0D43F4014343F0800320F82230B0F848
:1025280050309BB20A7803EBC20300EB4303CA881E
:1025380052085200C3F80024B0F850309BB20A7811
:1025480003EBC20300EB43030A8952085200C3F8A5
:1025580008244B78002B4DD10A7830F8223003F448
:1025680080439BB25BB130F8223023F0F0031B05A7
:102578001B0D43F4404343F0800320F822300A78CF
:1025880030F8223003F040039BB25BB130F82230C0
:1025980023F0F0031B051B0D43F4004343F0C00375
:1025A80020F822300A7830F8223023F0F0031B0597
:1025B8001B0D43F4004343F0C00320F822300C788D
:1025C80030F824309BB223F4804323F0700383F463
:1025D800405348F28002134320F82430097830F839
:1025E80021309BB223F4E04323F04003134320F847
:1025F80021304AE00A7830F8223003F480439BB255
:102608005BB130F8223023F0F0031B051B0D43F4B7
:10261800404343F0800320F822300A7830F8223013
:1026280003F040039BB25BB130F8223023F0F00393
:102638001B051B0D43F4004343F0C00320F8223070
:102648000A7830F8223023F0F0031B051B0D43F401
:10265800404343F0800320F822300C7830F82430CF
:102668009BB223F4E04323F0400348F28002134373
:1026780020F82430097830F821309BB223F48043C5
:1026880023F07003134320F8213000205DF8044B39
:10269800704700BF8B7A002B46D14B7813B30A786A
:1026A80030F8223003F040039BB25BB130F822309F
:1026B80023F0F0031B051B0D43F4004343F0C00354
:1026C80020F822300A7830F822309BB223F4E04315
:1026D80023F0400343F4004343F0800320F8223002
:1026E800002070470A7830F8223003F480439BB208
:1026F8005BB130F8223023F0F0031B051B0D43F4C7
:10270800404343F0800320F822300A7830F8223022
:102718009BB223F4804323F0700343F4004343F057
:10272800800320F82230DBE710B44B78002B4BD124
:102738000A7830F8223003F480439BB25BB130F85A
:10274800223023F0F0031B051B0D43F4404343F0F4
:10275800800320F822300A7830F8223003F0400352
:102768009BB25BB130F8223023F0F0031B051B0D40
:1027780043F4004343F0C00320F822300A7830F8CD
:10278800223023F0F0031B051B0D43F4004343F0F4
:10279800C00320F822300C7830F824309BB223F4A0
:1027A800804323F0700348F28002134320F824305A
:1027B800097830F821309BB223F4E04323F040033A
:1027C800134320F821304AE00A7830F8223003F425
:1027D80080439BB25BB130F8223023F0F0031B0535
:1027E8001B0D43F4404343F0800320F822300A785D
:1027F80030F8223003F040039BB25BB130F822304E
:1028080023F0F0031B051B0D43F4004343F0C00302
:1028180020F822300A7830F8223023F0F0031B0524
:102828001B0D43F4404343F0800320F822300C781A
:1028380030F824309BB223F4E04323F0400348F2FD
:102848008002134320F82430097830F821309BB2F5
:1028580023F4804323F07003134320F82130002031
:102868005DF8044B704700BF0A788AB930F8223007
:102878009BB223F4804323F0400383F4805383F016
:10288800100343F4004343F0800320F8223020E093
:102898004B787BB130F822309BB223F4E04323F02D
:1028A800400383F0100343F4004343F0800320F80F
:1028B80022300EE030F822309BB223F4804323F01C
:1028C800700383F4805343F4004343F0800320F8FB
:1028D80022300020704700BF4B781BB30A7830F8CD
:1028E800223003F040039BB25BB130F8223023F072
:1028F800F0031B051B0D43F4004343F0C00320F80D
:1029080022300A7830F822309BB223F4E04323F0D7
:10291800400383F0300343F4004343F0800320F87E
:10292800223022E00A7830F8223003F480439BB248
:102938005BB130F8223023F0F0031B051B0D43F484
:10294800404343F0800320F822300A7830F82230E0
:102958009BB223F4804323F0700383F4405343F481
:10296800004343F0800320F822300020704700BF66
:1029780011B98023A0F84C30002070470020704720
:1029880000207047B0F8440080B2704700207047BC
:1029980010B401335B1000EB420202F5806207E0DD
:1029A8000C78487844EA002422F8044B0231013BB1
:1029B800002BF5D15DF8044B704700BF70B54A781D
:1029C800012A40F0BF808E690B699E4203D9F61A2E
:1029D8008E611E4601E000238B610D4604468B7A0A
:1029E8007BB94969AA88B3B2FFF7D2FFB4F850306F
:1029F8009BB22A7803EBC20304EB4303C3F80464D5
:102A08008FE0097830F8213003F040039BB293B38C
:102A180022BBB0F850309BB203EBC101063100EB8A
:102A280041013E2E0ED9C6F34F1316F01F0F01D1E8
:102A3800013B9BB26FEAC3636FEA53439BB2C1F891
:102A4800003416E0C6F34F0316F0010F01D001332E
:102A58009BB29B029BB2C1F800340AE0012A08D15C
:102A6800B0F850309BB203EBC10300EB4303C3F84B
:102A780004642A8931E022BBB0F850309BB203EBE2
:102A8800C101023100EB41013E2E0ED9C6F34F13AE
:102A980016F01F0F01D1013B9BB26FEAC3636FEAC7
:102AA80053439BB2C1F8003416E0C6F34F0316F047
:102AB800010F01D001339BB29B029BB2C1F80034D5
:102AC8000AE0012A08D1B0F850309BB203EBC103E9
:102AD80000EB4303C3F80464EA8820466969B3B28B
:102AE800FFF756FF6B786BB92A7834F8223023F059
:102AF800F0031B051B0D43F4004343F0C00324F807
:102B080022300EE0012B0CD12A7834F8223023F041
:102B1800F0031B051B0D43F4404343F0800324F8E6
:102B280022302A7834F822309BB223F4E04323F091
:102B3800400383F0300343F4004343F0800324F858
:102B48002230A8E08B690C69A34203D91B1B8B6157
:102B5800234601E000248C618C7A2CBBB0F850200D
:102B680092B20C7802EBC402063200EB42023E2B12
:102B78000ED9C3F34F1413F01F0F01D1013CA4B2B7
:102B88006FEAC4646FEA5444A4B2C2F8004472E025
:102B9800C3F34F0413F0010F01D00134A4B2A4020F
:102BA800A4B2C2F8004466E02ABBB0F8502092B242
:102BB8000C7802EBC402023200EB42023E2B0ED923
:102BC800C3F34F1413F01F0F01D1013CA4B26FEAF5
:102BD800C4646FEA5444A4B2C2F8004417E0C3F3D3
:102BE8004F0413F0010F01D00134A4B2A402A4B21F
:102BF800C2F800440BE0012A09D1B0F8502092B283
:102C08000C7802EBC40200EB4202C2F804344A78A2
:102C18002ABBB0F8502092B20C7802EBC4020632FC
:102C280000EB42023E2B0ED9C3F34F1413F01F0FD3
:102C380001D1013CA4B26FEAC4646FEA5444A4B25F
:102C4800C2F8004417E0C3F34F0413F0010F01D09A
:102C58000134A4B2A402A4B2C2F800440BE0012AD1
:102C680009D1B0F8502092B20C7802EBC40200EB04
:102C78004202C2F804340A7830F822309BB223F4B6
:102C8800804323F0700383F4405343F4004343F03C
:102C9800800320F82230002070BD00BF01335B1094
:102CA80000EB420202F5806204E0106821F8020B92
:102CB800013B0432002BF8D1704700BFFEE700BF8C
:102CC80008B50D4B1B6813B90C4A0B4B1A600A4B1D
:102CD8001A68C31C23F00303134409498B4206D91D
:102CE80001F0CAF90C2303604FF0FF3008BD024918
:102CF8000B60104608BD00BFC8000020FC1600206D
:102D0800004C002001230360014B0B60704700BF9B
:102D18000C0000200FB400B583B004AB53F8042BAB
:102D280001930848802101F0E1F9011E03DD0548FF
:102D380000F03CF80146084603B05DF804EB04B027
:102D4800704700BFD00000202DE9F04385B004464D
:102D58000F46435C13BB042528462146ABBE0446F8
:102D68001FE03546102E28BF1025002306E014F872
:102D7800011B04AA1A4402F8101C0133AB42F6D313
:102D880004AA1344002203F8102CE9464FF0040863
:102D980040464946ABBE8046761B00E00E46002EF4
:102DA800DFD1384605B0BDE8F08300BF08B5FFF7AE
:102DB800CBFF08BD08B500F097F8024B024A9A60AD
:102DC80008BD00BF00ED00E00000000808B500F0F5
:102DD800B1F808BDF8B504460D4617461E46264804
:102DE800FFF798FF25482168FFF794FF244861689A
:102DF800FFF790FF2348A168FFF78CFF2248E1689E
:102E0800FFF788FF21482169FFF784FF204861699F
:102E1800FFF780FF1F48A169FFF77CFF1E48E169A3
:102E2800FFF778FF1D48FFF775FF1D482946FFF794
:102E380071FF1C4CE16A1C48FFF76CFF216B1B48B3
:102E4800FFF768FFE16B1A48FFF764FF15F0800F82
:102E580003D018483946FFF75DFF15F4004F03D03B
:102E680015483146FFF756FF1448FFF753FF14483B
:102E78000699FFF74FFFF8BD0C4A00081C4A0008E6
:102E88002C4A00083C4A00084C4A00085C4A0008E2
:102E98006C4A00087C4A00088C4A00089C4A0008D2
:102EA800A84A000800ED00E0B84A0008C84A00082F
:102EB800D84A0008E84A0008F84A0008084B000801
:102EC800104B000883691A888A4207D10268033ABE
:102ED800012A05D80233836101207047002070471A
:102EE80000207047FEE700000F4B1A6842F001020D
:102EF8001A6059680D4A0A405A601A6822F08472AA
:102F080022F480321A601A6822F480221A605A6801
:102F180022F4FE025A604FF41F029A604FF00062DA
:102F2800034B9A60704700BF001002400000FFF892
:102F380000ED00E01F4B5B6803F00C03042B06D088
:102F4800082B08D03BBB1C4A1C4B1A6026E01A4AC7
:102F58001A4B1A6022E0174A53685268C3F3834336
:102F6800023312F4803F05D1154A02FB03F3134ADA
:102F7800136013E00F4A526812F4003F05D0104A5C
:102F880002FB03F30D4A136008E00B4A02FB03F34C
:102F98000A4A136002E0084A084B1A60054B5B684E
:102FA800C3F30313074AD15C044A1368CB40136088
:102FB800704700BF0010024000127A001400002081
:102FC80000093D00544B000882B00A4B9A6942F050
:102FD80020029A619A6902F020020092009A9A6986
:102FE80042F004029A619B6903F004030193019B78
:102FF80002B070470010024008B50268034B9A42BD
:1030080003D10348012100F069F908BD00380140E7
:1030180068010020FEE700BF08B50B480B4B0360B2
:103028004FF4E133436000238360C36003610C22E3
:1030380042618361C361FEF751FF18B104487121F1
:10304800FFF7E8FF08BD00BF580500200038014021
:103058006C4B000800B595B001220A924FF48033FA
:103068000B9300210C910E920222119212934FF4AD
:10307800E01313930AA8FEF7D5F818B11A483F21B0
:10308800FFF7C8FF0F23059302210691002307933A
:103098004FF480620892099305A8FEF78FFB18B1D8
:1030A80011484D21FFF7B6FF102301930023049325
:1030B80001A8FEF7CBFC18B10B485421FFF7AAFF73
:1030C800FEF79EFC094BA3FB00308009FDF70EFAC2
:1030D8000420FDF721FA4FF0FF3000210A46FDF7E2
:1030E800AFF915B05DF804FB6C4B0008D34D6210C6
:1030F80008B5FDF763F9FFF7ADFFFFF765FF00F0CF
:10310800B9F8FFF789FF034B1A68D36843F0200327
:10311800D360FEE758050020704700BF00B583B0B4
:10312800204B9A6942F001029A619B6903F00103FE
:103138000193019B0320FDF765F96FF00B00002157
:103148000A46FDF77DF96FF00A0000210A46FDF7EF
:1031580077F96FF0090000210A46FDF771F96FF061
:10316800040000210A46FDF76BF96FF00300002107
:103178000A46FDF765F96FF0010000210A46FDF7E0
:103188005FF94FF0FF3000210A46FDF759F9064A6A
:10319800536823F0E06343F00073536003B05DF8B5
:1031A80004FB00BF00100240000001400268184BF9
:1031B8009A422CD130B587B003F558439A6942F446
:1031C80080429A619B6903F480430193019B4FF409
:1031D8000073029302230393032305930D4D28469E
:1031E80002A9FDF707FA4FF48063029300240394C1
:1031F8000494284602A9FDF7FDF925202146224618
:10320800FDF71EF92520FDF75DF907B030BD7047C1
:103218000038014000080140704700BFFEE700BFCA
:10322800FEE700BFFEE700BFFEE700BF704700BF34
:10323800704700BF704700BF08B5FDF7D1F8FDF72C
:1032480089F908BD08B50248FDF7B6FE08BD00BFFC
:10325800FC0F002010B5054C2046FEF7B3FF2046B2
:1032680003490122FEF720FF10BD00BF58050020CA
:103278006801002010B5094C20460949002200F0D9
:1032880013FA2046074900F027FA2046064900F0BD
:10329800B7FE204600F028FA10BD00BF0006002047
:1032A80028000020E84B0008180000200020704784
:1032B8000020704710B5064C20460649002200F051
:1032C800A7FE2046044900F0ABFE002010BD00BF59
:1032D80000060020140C00202C08002070B50546BC
:1032E8000C460B482946224600F0CCFE094BD3F881
:1032F8002032D3F814324BB9064E304629462246BE
:1033080000F086FE304600F091FE70BD012070BDD1
:10331800140C00200006002038B505460C46098824
:10332800FFF7DCFF0748294622886423FEF74CFE96
:10333800054C2046294600F073FE204600F08EFE1C
:10334800002038BD580500200006002002680E4BFA
:103358009A4217D100B583B003F5DA33DA6942F43B
:103368000002DA61DB6903F400030193019B142076
:1033780000210A46FDF764F81420FDF7A3F803B00E
:103388005DF804FB704700BF005C004008B50146CB
:10339800D0F85C0401F22C4100F0C2F908BD00BF6E
:1033A80008B500EB4113D0F85C04D3F83C2200F0D8
:1033B800E5F908BD08B500EB4113D0F85C04DA6BF9
:1033C80000F00CFA08BD00BF08B5D0F85C0400F0A6
:1033D8008BFA08BD10B50446D0F85C04012100F052
:1033E8006FFAD4F85C0400F04BFA10BD10B504462F
:1033F800D0F85C0400F068FAA36923B1024A1369A3
:1034080043F00603136110BD00ED00E008B5D0F8E5
:103418005C0400F063FA08BD10B504461F48C0F804
:103428005C44C4F828021E4B03600823436002234F
:1034380083600323C36000238361C3610362FDF7D4
:103448005BFA20B117484FF49771FFF7E3FDD4F802
:10345800280200210A461823FDF7B2FED4F82802F4
:10346800802100225823FDF7ABFED4F828028121E1
:103478000022C023FDF7A4FED4F82802012100226F
:103488004FF48873FDF79CFED4F8280282210022AD
:103498004FF48073FDF794FE002010BDFC0F002050
:1034A800005C00407C4B000808B5D0F82802FDF706
:1034B8009FFA10B1022802D003E0002008BD0120C5
:1034C80008BD022008BD00BF10B51446D0F8280278
:1034D8001A462346FDF7B8FA10B1022802D003E0D5
:1034E800002010BD012010BD022010BD08B5D0F885
:1034F8002802FDF7D3FA10B1022802D003E0002019
:1035080008BD012008BD022008BD00BF08B5D0F8DD
:103518002802FDF7FFFD10B1022802D003E00020C9
:1035280008BD012008BD022008BD00BF08B5D0F8BD
:103538002802FDF71DFE10B1022802D003E000208A
:1035480008BD012008BD022008BD00BFD0F8282210
:1035580011F0800F06D001F07F0302EB431191F8C0
:103568002A00704701F07F0102EB411191F82A020D
:10357800704700BF08B5D0F82802FDF751FA10B11E
:10358800022802D003E0002008BD012008BD022067
:1035980008BD00BF08B5D0F82802FDF7CFFA10B172
:1035A800022802D003E0002008BD012008BD022047
:1035B80008BD00BF08B5D0F82802FDF797FA10B18A
:1035C800022802D003E0002008BD012008BD022027
:1035D80008BD00BF08B5D0F82802FDF7A7FA08BD56
:1035E800704700BF12230B80004870474800002036
:1035F80004230B80004870474400002008B50A46A1
:1036080020B90548054900F0D3FB03E00248034907
:1036180000F0CEFB014808BD904B00085C14002068
:1036280010B50A46034C0448214600F0C1FB204669
:1036380010BD00BF5C140020A84B000808B50A465E
:1036480020B90548054900F0B3FB03E002480349E7
:1036580000F0AEFB014808BDBC4B00085C1400201C
:1036680008B50A4620B90548054900F0A1FB03E062
:103678000248034900F09CFB014808BDCC4B0008F8
:103688005C14002008B50A4620B90548054900F031
:103698008FFB03E00248034900F08AFB014808BD9C
:1036A800D84B00085C14002098B108B50346D0F840
:1036B800140210B10020C3F8140209B1C3F81012A3
:1036C800012183F8FC111A701846FFF7A5FE0020A7
:1036D80008BD0220704700BF19B1C0F814120020BD
:1036E80070470220704700BF08B5FFF7DDFE0020D5
:1036F80008BD00BF08B5D0F8143223B11B6898473D
:1037080018B1022008BD022008BD002008BD00BF76
:1037180008B5D0F814325B689847002008BD00BF90
:1037280038B5044600F50275284600F003F9012370
:10373800C4F8F431B4F80E32C4F8F83194F8081229
:1037480001F01F03012B08D013B1022B0AD00EE0A1
:103758002046294600F05EFA0EE02046294600F091
:103768007DFA09E02046294600F094FA04E0204654
:1037780001F08001FFF7CAFE002038BD38B50446C5
:1037880009BBD0F8F431032B26D1D0F80C31D0F88E
:1037980010118B420AD95B1AC0F80C318B4228BF32
:1037A8000B4611469AB200F049FB15E0D0F81432E6
:1037B8001B6923B190F8FC21032A00D198472046C1
:1037C80000F046FB08E0D0F814329B6923B190F86A
:1037D800FC21032A00D19847002038BD38B504469B
:1037E800002942D1D0F8F431022B36D1C169036ADD
:1037F80099420CD9CB1AC36111469AB200F004FB66
:10380800204600210A460B46FFF7D4FE25E08169D1
:10381800B1FBF3F203FB121292B98B4210D8D0F825
:10382800F83199420CD200210A4600F0EDFA002343
:10383800C4F8F831204619461A46FFF7BBFE0CE0DB
:10384800D4F81432DB682BB194F8FC21032A01D197
:1038580020469847204600F007FB94F80032012BD9
:103868000CD1002384F8003208E0D0F814325B69E8
:1038780023B190F8FC21032A00D19847002038BDD5
:1038880038B5044600210A464023FFF71DFE4025AF
:10389800C4F810512046802100222B46FFF714FE61
:1038A8002562012384F8FC31D4F820322BB1D4F8F6
:1038B80014325B68204621799847002038BD00BF44
:1038C80001740020704700BF90F8FC3180F8FD318A
:1038D800042380F8FC310020704700BF90F8FD31C8
:1038E80080F8FC310020704708B590F8FC31032BB4
:1038F80004D1D0F81432DB6903B19847002008BD21
:103908000346002002E00130C0B201331A78002AD1
:10391800F9D170474B88012B0BD110B50446C0F87C
:103928000432D0F814329B689847204600F090FA89
:1039380010BD70470B7803704B7843708B78CA784A
:1039480003EB022343800B794A7903EB022383803C
:103958008B79CA7903EB0223C380704710B50446FC
:103968008021FFF7D3FD20460021FFF7CFFD10BDD2
:1039780030B583B005460C464A88130A013B062B2E
:103988006AD8DFE803F0040D156969576500D0F8B7
:1039980010321B68007C0DF10601984701465FE074
:1039A800D0F814329B6A0DF106009847014657E09B
:1039B800D2B2052A3AD8DFE802F0030C151E2730E8
:1039C800D0F810325B68007C0DF10601984701467B
:1039D80046E0D0F810329B68007C0DF1060198474C
:1039E80001463DE0D0F81032DB68007C0DF106019D
:1039F8009847014634E0D0F810321B69007C0DF17D
:103A08000601984701462BE0D0F810325B69007C2C
:103A18000DF106019847014622E0D0F810329B6963
:103A2800007C0DF106019847014619E02146FFF791
:103A380095FF22E0037C3BB9D0F81432DB6A0DF124
:103A48000600984701460BE02146FFF787FF14E080
:103A58002146FFF783FF10E02146FFF77FFF0CE0C8
:103A6800BDF806304BB1E2883AB19A4228BF1A46EF
:103A7800ADF80620284600F0B9F903B030BD00BF04
:103A880038B504468B88E3B9CB88D3B98D7805F06F
:103A98007F0590F8FC31032B02D1FFF75FFF38BD9B
:103AA80080F8FE512946FFF765FD204600F0D0F961
:103AB8001DB1022384F8FC3138BD012384F8FC31A0
:103AC80038BD2046FFF74AFF38BD00BF38B5044669
:103AD8000D468978264B1970012903D92946FFF725
:103AE8003DFF38BD90F8FC31022B02D0032B15D0D6
:103AF80039E081B14160032380F8FC31FFF7FAFD1A
:103B0800022804D120462946FFF728FF38BD204661
:103B180000F09EF938BD00F09BF938BD49B9022381
:103B280080F8FC314160FFF7F3FD204600F090F982
:103B380038BD4368994213D0D9B2FFF7E9FD0C4B61
:103B4800197861602046FFF7D5FD022804D1204688
:103B58002946FFF703FF38BD204600F079F938BD44
:103B680000F076F938BD2946FFF7F8FE38BD00BFEA
:103B78005001002008B50346CA88012A02D0FFF781
:103B8800EDFE08BD90F8FC21022A02D0032A08D0D5
:103B98000CE00146002241F8082F012200F026F926
:103BA80008BD191D012200F021F908BDFFF7D6FE56
:103BB80008BD00BF08B5034690F8FC21023A012A67
:103BC8000DD80122C260D0F804220AB10322C260D3
:103BD800184603F10C01022200F008F908BDFFF7AE
:103BE800BDFE08BD10B5044690F8FC31023B012B20
:103BF8000DD84B88012B0CD10023C0F80432D0F823
:103C080014329B689847204600F022F910BDFFF750
:103C1800A5FE10BD08B54B78092B1BD8DFE803F0CB
:103C280011171A141A08051A0E0BFFF7A1FE13E054
:103C3800FFF726FF10E0FFF749FF0DE0FFF79AFFB7
:103C48000AE0FFF7B7FF07E0FFF764FE04E0FFF7BD
:103C5800C9FF01E0FFF782FE002008BD38B5044621
:103C68000D4690F8FC31032B0FD10B79032B09D8A3
:103C7800D0F814329B689847EB8843B9204600F087
:103C8800E7F804E0FFF76AFE01E0FFF767FE0020AF
:103C980038BD00BF38B505460C468A88D1B22378AE
:103CA80003F06003202B05D1D0F814329B6821461D
:103CB80098477BE06378012B26D0002B48D0032B54
:103CC80074D190F8FC31022B02D0032B07D017E0F7
:103CD80000296BD0802969D0FFF718FC66E063885B
:103CE80023B919B1802901D0FFF710FCD5F8143297
:103CF8009B68284621469847284600F0A9F855E0D1
:103D08002146FFF72BFE51E090F8FC31022B02D040
:103D1800032B07D018E0002948D0802946D0FFF7A8
:103D2800F5FB43E06388002B40D111F07F0F07D0EB
:103D3800FFF7FCFBD5F814329B68284621469847C4
:103D4800284600F085F831E02146FFF707FE2DE010
:103D580090F8FC31022B02D0032B06D023E011F09F
:103D68007F0F23D0FFF7D2FB20E012F0800F05D0A1
:103D780001F07F0400EB0414143405E001F07F0423
:103D880000EB041404F582742846FFF7DFFB10B13A
:103D98000123236001E000232360284621460222F4
:103DA80000F024F802E02146FFF7D8FD002038BDD6
:103DB800D0B170B50D4616460446FFF7A1FD013097
:103DC800400080B23080287003236B70022307E024
:103DD8005A1CD2B20134E954531CDBB20021A95455
:103DE80021780029F4D170BD704700BF38B50D4661
:103DF80013460222C0F8F4218361C36100212A46D8
:103E0800FFF7C8FB002038BD10B50C46134600214B
:103E18002246FFF7BFFB002010BD00BF38B50D4696
:103E280013460322C0F8F421C0F80831C0F80C3159
:103E380000212A46FFF7BEFB002038BD10B50C460E
:103E4800134600212246FFF7B5FB002010BD00BF36
:103E580008B50423C0F8F43100210A460B46FFF7E1
:103E680099FB002008BD00BF08B50523C0F8F43150
:103E780000210A460B46FFF79DFB002008BD00BF46
:103E8800D0F820321BB10020C3F81402704702207A
:103E9800704700BF10B5D0F82042D0F824325BB18B
:103EA80094F80002FF2807D09B68214694F8012265
:103EB8009847FF2384F80032002010BD4323038075
:103EC80000487047244C00080A23038000487047C4
:103ED800184C000870B50446812102224023FFF7E0
:103EE800F3FA2046012102224023FFF7EDFA20468B
:103EF800822103220823FFF7E7FA0A4DC4F820526B
:103F0800D4F824321B6898470026C5F81462C5F80F
:103F1800186220460121D5F804224023FFF74AFB06
:103F2800304670BDDC14002010B504468121FFF72F
:103F3800DDFA20460121FFF7D9FA20468221FFF752
:103F4800D5FAD4F8203233B1D4F824325B689847D4
:103F58000023C4F82032002010BD00BF70B505460C
:103F68000C46D0F820620B7813F0600224D0202A87
:103F780029D1CA88CAB113F0800F0BD0D0F82432E7
:103F88009B6848783146984728463146E288FFF7CB
:103F98002DFF18E04B7886F80032CB8886F801327E
:103FA8003146E288FFF73AFF0DE0D0F824329B68EB
:103FB80048780022984706E04B780A2B03D103493A
:103FC8000122FFF713FF002070BD00BF5101002040
:103FD80038B50446D0F82052FFF7FCFAC5F80C02B1
:103FE800D4F820324BB1D4F82432DB68D5F8040277
:103FF80005F503719847002038BD022038BD00BF81
:1040080019B1C0F82412002070470220704700BF81
:10401800D0F82032C3F80812C3F8102200207047E5
:10402800D0F82032C3F804120020704708B5D0F841
:10403800203273B1D3F814226AB90122C3F81422CA
:104048008121D3F80822B3F81032FFF7A3FA002031
:1040580008BD022008BD012008BD00BF08B5D0F882
:1040680020323BB10121D3F804224023FFF7A2FA02
:10407800002008BD022008BD014B1868704700BF2A
:10408800BC00002010B5431E0A44914204D011F828
:10409800014B03F8014FF8E710BD30B5141E9BB073
:1040A800054604DA8B2303604FF0FF301CE04FF421
:1040B8000272ADF80C200CBF224604F1FF320292C6
:1040C80005924FF6FF7200910491ADF80E206946F3
:1040D8001A461E9B00F074F8431CBCBF8B232B6050
:1040E80014B1009B00221A701BB030BD73B5064690
:1040F8000D4614460093044B314618682A46234659
:10410800FFF7CBFF02B070BDBC0000202DE9F047DF
:104118008E688246B3420C469046994640D38A89B7
:1041280012F4906F3AD02568096902236F1A6569FD
:1041380005EB450595FBF3F57B1C4B449D4238BFC9
:104148001D4653050FD5294600F030FB064698B1A9
:1041580021693A46FFF796FFA38923F4906343F059
:104168008003A38113E02A4600F076FB064670B967
:104178005046216900F0D6FA0C23CAF80030A3890A
:104188004FF0FF3043F04003A381BDE8F08726617C
:104198003E4426604E466561ED1BA560B14500D2E0
:1041A8004E4632462068414600F0A0FAA368002037
:1041B8009B1BA36023681E442660BDE8F0870000AF
:1041C8002DE9F0439DB003938B8906461C060D46E6
:1041D80090460CD50B6953B9402100F0E7FA2860E6
:1041E800286110B90C233360CCE040236B610023B5
:1041F800099320238DF8293030238DF82A3043463F
:104208001C4613F8012B1AB9B4EB08090FD002E0C9
:10421800252AF5D1F8E73046294642464B46FFF7AE
:1042280075FF013000F0A980099B4B44099323785E
:10423800002B00F0A28000234FF0FF320493079375
:10424800059206938DF853301A9304F101084446F9
:10425800DFF8489121784846052200F039FA08F13C
:104268000108049B30B1C9EB0000012282401343CE
:104278000493ECE7D80644BF20228DF85320190791
:1042880044BF2B228DF8532022782A2A02D007997E
:1042980023460EE0039A0134111D12680391002A87
:1042A800BBBF524243F0020307920792B8BF049380
:1042B8000AE01C4622780133303A092A03D80A203A
:1042C80000FB0121F5E7079123782E2B1AD163789B
:1042D8002A2B0AD1039B02341A1D1B680392002B58
:1042E800B8BF4FF0FF3305930CE0611C00220C4669
:1042F80023780131303B092B03D80A2000FB023216
:10430800F5E70592DFF8988021784046032200F00F
:10431800DFF938B1049AC8EB000040238340134307
:104328000493013421781A48062204F101088DF813
:10433800281000F0CDF988B1164B33B9039B073329
:1043480023F007030833039313E003AB00933046CD
:1043580004A92A46104BAFF3008007E003AB009393
:10436800304604A92A460C4B00F092F8421C074636
:1043780003D0099B3B44099341E7AB895B0601D411
:10438800099801E04FF0FF301DB0BDE8F08300BF91
:10439800734C00080000000015410008694C000833
:1043A8006F4C00082DE9F84391461F468A680B694F
:1043B80006469342B8BF1346C9F8003091F8432027
:1043C8000C46DDF8208012B10133C9F800302368AB
:1043D800990642BFD9F800300233C9F80030256881
:1043E80015F006051CD094F843302268003318BF36
:1043F800012392061FD5E118302081F843005A1C8A
:1044080094F845102244023382F8431013E03046F2
:10441800394604F119020123C047013007D001359C
:10442800E368D9F800209B1A9D42F0DBDBE74FF0E8
:10443800FF30BDE8F8833046394604F14302C047EF
:104448000130F4D02268D9F80050E36802F006027F
:10445800042A08BF5D1B2269A3680CBF25EAE5751D
:1044680000259342C4BF9B1AED184FF00009A945D7
:104478000ADA3046394604F11A020123C0470130EE
:10448800D5D009F10109F2E70020BDE8F883000062
:104498002DE9FF410C461746227E98466E2A0646AD
:1044A8000A9B01F1430100F0B08012D8632A23D09F
:1044B8000AD8002A00F0BD80582A40F0CC8084F841
:1044C8004520DFF804E257E0642A1ED0692A1CD090
:1044D800C1E0732A00F0B18009D86F2A2ED0702A63
:1044E80040F0B980226842F0200222603FE0752A3D
:1044F80024D0782A3BD0AEE01A6804F14205111D99
:104508001960136884F84230A9E020681A6810F02E
:10451800800F02D0101D186008E010F0400F02F163
:104528000400186002D0B2F9003000E01368002BD4
:104538003EDA2D225B4284F8432039E020681A686D
:1045480010F0800F02D0101D186007E010F0400F27
:1045580002F10400186001D0138800E01368227E7D
:10456800DFF864E16F2A0CBF08220A221CE07822D7
:10457800DFF858E184F845202268186812F0800FA7
:1045880000F104051D6003D1550601D5038800E03C
:104598000368D00744BF42F0200222601BB922689A
:1045A80022F0200222601022002084F8430002E05A
:1045B800DFF814E10A226568002DA8BF2068A5600D
:1045C800A4BF20F00400206003B965B10D46B3FB19
:1045D800F2F002FB10331EF8033005F8013D0346E4
:1045E8000028F4D100E00D46082A0BD12368DA0729
:1045F80008D5236962689A42DEBF302305F8013C7A
:1046080005F1FF35491B21612EE025681A6815F070
:10461800800F606903D0151D1D60136808E015F050
:10462800400F02F104051D60136801D0188000E0F6
:104638001860002323610D4616E01A68111D1960E1
:10464800156800212846626800F042F808B1401B4E
:104658006060636804E004F1420584F842200123A5
:104668002361002384F84330CDF80080304621468A
:1046780003AA3B46FFF796FE013002D14FF0FF3008
:104688001FE0304639462A462369C0470130F5D035
:1046980023689B0705D4E068039B9842B8BF184677
:1046A8000FE00025E368039A9B1A9D42F3DA30462F
:1046B800394604F119020123C0470130DED0013523
:1046C800F0E704B0BDE8F0817A4C00088B4C000894
:1046D80010B5C9B202449042034605D01C78013097
:1046E8008C42F8D1184610BD002010BD814210B58B
:1046F80001EB020301D3421E0BE09842FBD2811862
:10470800D21AD34204D013F8014D01F8014DF8E74D
:1047180010BD994204D011F8014B02F8014FF8E797
:1047280010BD000030B500293CD051F8042C0B1FF7
:104738001D49002AB8BF9B180A680C4612B95A606E
:104748000B6030BD93420DD219685818904201BFD2
:104758005A5852181A60426823605A6030BD99420C
:1047680003D80A4651680029F9D1146815199D42E1
:104778000AD11B682344D0188842136012D10868F4
:10478800034413604B680CE002D90C23036030BD6E
:104798001C681819884201BF086849680019186020
:1047A8005960536030BD00BF5801002070B5CC1C63
:1047B80024F0030408340C2C38BF0C24002C0646C3
:1047C80003DA0C233360002070BD8C42F9D3204AF1
:1047D800136810461946A1B10A68121B0ED40B2A99
:1047E80003D90A608B188C501FE08B420BBF5A68A4
:1047F8004A6802605A6018BF0B4616E00B464968C3
:10480800E9E7144D2B681BB9304600F04BF82860D7
:104818003046214600F046F8421C0346D1D0C51C5C
:1048280025F0030585420AD11C6003F10B001A1D0F
:1048380020F00700821A0AD05142995070BD3046C4
:10484800E91A00F02FF80130BBD02B46ECE770BD19
:104858005801002054010020F8B5074615460E46B9
:1048680021B91146BDE8F840FFF7A0BF1AB9FFF714
:1048780059FF2846F8BD00F025F8A8420ED2384660
:104888002946FFF793FF044650B131462A46FFF701
:10489800F9FB38463146FFF745FF01E03046F8BDE1
:1048A8002046F8BD38B5064C002305460846236067
:1048B800FEF706FA431C02D1236803B12B6038BD0A
:1048C8006001002051F8040C0028BEBF091851F8F7
:1048D800043CC018043870472E2E2F737973746502
:1048E8006D2F7372632F73746D3332663178782F3E
:1048F80073746D3332663178785F68616C5F636FAB
:10490800727465782E6300002E2E2F737973746588
:104918006D2F7372632F73746D3332663178782F0D
:1049280073746D3332663178785F68616C5F677075
:10493800696F2E63000000002E2E2F737973746543
:104948006D2F7372632F73746D3332663178782FDD
:1049580073746D3332663178785F68616C5F706349
:10496800642E630002030405060708090A0B0C0DF0
:104978000E0F1010010200002E2E2F73797374652C
:104988006D2F7372632F73746D3332663178782F9D
:1049980073746D3332663178785F68616C5F726307
:1049A800632E63002E2E2F73797374656D2F7372C7
:1049B800632F73746D3332663178782F73746D3367
:1049C80032663178785F68616C5F7263635F6578BF
:1049D8002E6300002E2E2F73797374656D2F7372FA
:1049E800632F73746D3332663178782F73746D3337
:1049F80032663178785F68616C5F756172742E63B6
:104A080000000000537461636B206672616D653A43
:104A18000A000000205230203D2020253038580A56
:104A280000000000205231203D2020253038580A4F
:104A380000000000205232203D2020253038580A3E
:104A480000000000205233203D2020253038580A2D
:104A58000000000020523132203D20253038580A0D
:104A680000000000204C52203D2020253038580AF4
:104A780000000000205043203D2020253038580AEF
:104A88000000000020505352203D20253038580A9D
:104A9800000000004653522F4641523A0A000000D7
:104AA8002043465352203D2020253038580A000024
:104AB8002048465352203D2020253038580A00000F
:104AC8002044465352203D2020253038580A000003
:104AD8002041465352203D2020253038580A0000F6
:104AE800204D4D464152203D20253038580A0000BF
:104AF8002042464152203D2020253038580A0000E7
:104B08004D6973630A000000204C522F4558435FDB
:104B180052455455524E3D20253038580A00000061
:104B28005B486172644661756C745D0A0000000040
:104B38005B4275734661756C745D0A005B55736101
:104B480067654661756C745D0A000000000000002E
:104B58000000000001020304060708090000000025
:104B6800010203042E2E2F7372632F6D61696E2E5E
:104B7800630000002E2E2F7372632F757362645FBB
:104B8800636F6E662E63000053544D333220436FBB
:104B98006D706F7369746520434443204D5343001F
:104BA80053544D6963726F656C656374726F6E6997
:104BB80063730000303030303030303030353543BA
:104BC8000000000043444320436F6E66696700009D
:104BD80043444320496E7465726661636500000052
:104BE800DD3E0008313F0008653F00080000000076
:104BF8009D3E0008893E0008D93F000800000000DB
:104C08000000000000000000C53E0008D13E00087A
:104C18000A060002000000400100000009024300EB
:104C2800020100C03209040000010202010005244B
:104C380000100105240100010424020205240600D5
:104C4800010705820308001009040100020A000098
:104C580000070501024000000705810240000043EB
:104C680000232D302B2000686C4C00656667454694
:104C780047003031323334353637383941424344CE
:104C8800454600303132333435363738396162635E
:044C980064656600E9
:104C9C00785634121000000001000000CC000020F7
:104CAC000000000000A24A04BD320008B532000822
:104CBC00B932000821330008ED350008F935000839
:104CCC002936000805360008453600086936000804
:104CDC008D36000804030904120100020202004090
:104CEC008304405700020102030100000000000091
:104CFC0000000000000000000000000000000000A8
:104D0C00000000000000000000000000674C0008DC
:104D1C000000000000000000000000000000000087
:104D2C000000000000000000000000000000000077
:104D3C000000000000000000000000000000000067
:104D4C000000000000000000000000005C000020DB
:044D5C0032547698BF
:040000050800010DE1
:00000001FF
